:020000040000FA
:0608000053EF30F012007E
:020806001200DE
:0608080053EF1BF012008B
:02080E00C250D6
:08081000020B01E0010E1200D1
:0608180034EF04F01200B1
:02081E000600D2
:1008200029610000CA020000010000006F610000A1
:10083000AD0200000D0000006B610000C40200006A
:10084000040000005B610000810200001000000055
:1008500059610000C802000002000000346100007D
:08086000410200002500000028
:08086800D8CFE4FFE0CFE4FF6C
:10087000E46EDACFE4FFE2CFDAFFE9CFE4FFEACFBC
:10088000E4FFF3CFE4FFF4CFE4FFE652D9CFE6FF75
:10089000E1CFD9FF020EE126F050020B07E0F05045
:1008A000100B04E0F092B7EC2AF046D0F050040BA5
:1008B00007E0F050200B04E0F09401EC2BF03CD06A
:1008C0009E50010B07E09D50010B04E09E90B1EC9F
:1008D0002FF032D09E50020B07E09D50020B04E037
:1008E0009E9265EC26F028D09E50400B07E09D506C
:1008F000400B04E09E9C67EC26F01ED0F250010BEA
:100900001BE0F250080B18E08150DF6EF290DF50D0
:100910000201B919E76E010EE7CFDBFFDFCFB9F2B5
:10092000DBA80AD0100EDF1402E0010E01D0000E89
:10093000E66E3DEC2BF0E552D9CFE1FFE552E7CF73
:10094000D9FFE552E5CFF4FFE5CFF3FFE5CFEAFFAE
:10095000E5CFE9FFE5CFDAFFE550E5CFE0FFE5CFF2
:10096000D8FF1000D9CFE6FFE1CFD9FF430EE12633
:10097000DE6ADD6A020EDB6A030EDB6A040EDB6AE6
:10098000050EDB6A060EDB6A070EDB6A080EDB6A01
:10099000090EDB6A0A0EDB6A0B0EDB6A0C0EDB6AE1
:1009A0000D0EDB6A0E0EDB6A0F0EDB6A100EDB6AC1
:1009B000110EDB6A120EDB6A130EDB6A140EDB6AA1
:1009C000150EDB6A160EDB6A170EDB6A180EDB6A81
:1009D000190EDB6A1A0EDB6A1B0EDB6A1C0EDB6A61
:1009E0001D0EDB6A1E0EDB6A1F0EDB6A200EDB6A41
:1009F000210EDB6A220EDB6A230EDB6A240EDB6A21
:100A0000250EDB6A260EDB6A270EDB6A280EDB6A00
:100A1000290EDB6A2A0EDB6A2B0EDB6A2C0EDB6AE0
:100A20002D0EDB6A1E0EF36E2E0EF3CFDBFF010ED2
:100A3000F36E2F0EF3CFDBFF1E0EF36E300EF3CFEF
:100A4000DBFF010EF36E310EF3CFDBFF320EDB6AFC
:100A5000330EDB6A340EDB6A350EDB6A360EDB6A78
:100A600002017F0E0B6F0BC20AF20BC209F20BC21E
:100A700008F20BC207F20BC206F20BC205F20BC260
:100A800004F2136F13C212F213C211F213C210F266
:100A900013C20FF213C20EF213C20DF213C20CF204
:100AA0008C928D928C908D908C968D968C948D944A
:100AB0008C9A8D9A8C988D988C9E91908C9C8D9C04
:100AC000E20EE66E030EE66EDBEC29F0E552E5522F
:100AD000E9EC29F0020121AD7DEF0EF0020EE66E89
:100AE000DBEC25F0E552040EF3CFDBFF050EF4CF6F
:100AF000DBFF08EC29F0060EF3CFDBFF070EF4CF87
:100B0000DBFF020140A17AEF0EF0200EE66E020E2E
:100B1000E66E64EC1CF0E552E552220EDBCF2FF0BE
:100B2000306A2FBE3068080E3002F3CF30F0070E67
:100B30002F02F3503026080E2F02F3CF2FF0F4507F
:100B40003026316A326A30AE02D0316832682FC046
:100B5000E6FF30C0E6FF31C0E6FF32C0E6FF5EECE4
:100B600029F0E552E7CF32F0E552E7CF31F0E55218
:100B7000E7CF30F0E552E7CF2FF01B5000012F24D4
:100B80002B6E1C5030202C6E1D5031202D6E1E50AF
:100B900032202E6E0C0E2BC0DBFF0D0E2CC0DBFFA7
:100BA0000E0E2DC0DBFF0F0E2EC0DBFF81AE48D036
:100BB000340EDB5019E1010EF36E340EF3CFDBFF80
:100BC000170EDBCF1DF0180EDBCF1EF01D0E1DC063
:100BD000DBFF1E0E1EC0DBFF860EF36E2E0EF3CF64
:100BE000DBFF2F0EDB6A2CD0340EDB5029E0170E12
:100BF000DBCF2BF0180EDBCF2CF0110EE76E1D0EA5
:100C0000DBCF2DF01E0EDBCF2EF0E7502D26000E91
:100C10002E222E502C18E8AE02D02C3404D02B50AB
:100C20002D5C2C502E580CE2860EF36E300EF3CF56
:100C3000DBFF310EDB6A010EF36E350EF3CFDBFF07
:100C400087A04DD0340EDB501BE1010EF36E340E45
:100C5000F3CFDBFF170EDBCF1DF0180EDBCF1EF03E
:100C60001D0E1DC0DBFF1E0E1EC0DBFFF36E2E0E21
:100C7000F3CFDBFF010EF36E2F0EF3CFDBFF2FD090
:100C8000340EDB502CE0170EDBCF2BF0180EDBCF31
:100C90002CF0110EE76E1D0EDBCF2DF01E0EDBCFFC
:100CA0002EF0E7502D26000E2E222E502C18E8AEE6
:100CB00002D02C3404D02B502D5C2C502E580FE237
:100CC0001E0EF36E300EF3CFDBFF010EF36E310E0E
:100CD000F3CFDBFF010EF36E350EF3CFDBFF87A200
:100CE0004ED0340EDB501CE1010EF36E340EF3CF08
:100CF000DBFF170EDBCF1DF0180EDBCF1EF01D0E35
:100D00001DC0DBFF1E0E1EC0DBFFB40EF36E2E0EE9
:100D1000F3CFDBFF010EF36E2F0EF3CFDBFF2FD0EF
:100D2000340EDB502CE0170EDBCF2BF0180EDBCF90
:100D30002CF0110EE76E1D0EDBCF2DF01E0EDBCF5B
:100D40002EF0E7502D26000E2E222E502C18E8AE45
:100D500002D02C3404D02B502D5C2C502E580FE296
:100D6000B40EF36E300EF3CFDBFF010EF36E310ED7
:100D7000F3CFDBFF010EF36E350EF3CFDBFF87A45D
:100D800005D0010EF36E360EF3CFDBFF100EDBCF76
:100D90005EF2110EDBCF5FF2360EDB5002E069EF40
:100DA0000EF08850400B02E069EF0EF0210EDB5090
:100DB000060A02E103EF0DF0030A02E171EF0CF005
:100DC000010A02E1BAEF0BF0070A01E1F2D3020ACD
:100DD00001E11ED2030A01E130D1020A02E059EF1B
:100DE0000DF0010EF36E160EF3CFDBFF010EF36E66
:100DF000230EF3CFDBFF8850200B0EE0170EDBCF66
:100E00002BF0180EDBCF2CF02C3404E22B502808EA
:100E1000000E2C5401E30FD14E0EE96E020EEA6E65
:100E200002015251EE241B6E5351EE201C6E5451A0
:100E3000EE201D6E5551EE201E6E020E206E216AB0
:100E4000226A236A79EC2CF0FF0E1E18E8AE02D05D
:100E50001E3409D0F80ED8801B54F80E1C54FF0E17
:100E60001D54FF0E1E5401E3E1D0370EDB6A380E2D
:100E7000DB6A82B032D02E0EDBCF1DF02F0EDBCF1F
:100E80001EF0B40E1D1802E1010E1E181DE01E0E0C
:100E90001D1802E1010E1E1812E0860E1D1801E158
:100EA0001E5005E0370EDB6A380EDB6A15D09C0E4B
:100EB000F36E370EF3CFDBFF380EDB680DD0370E45
:100EC000DB6A380EDB6A08D0640EF36E370EF3CFA0
:100ED000DBFF380EDB6A00D031D02E0EDBCF1DF0E9
:100EE0002F0EDBCF1EF0B40E1D1802E1010E1E18EE
:100EF0001DE01E0E1D1802E1010E1E180FE0860EE9
:100F00001D1801E11E5005E0370EDB6A380EDB6A62
:100F100015D0370EDB6A380EDB6A10D0640EF36E24
:100F2000370EF3CFDBFF380EDB6A08D0C80EF36E46
:100F3000370EF3CFDBFF380EDB6A00D0370EDBCF86
:100F40002FF0380EDBCF30F0316A326A30AE02D08B
:100F500031683268D9500C0FE96EDACFEAFF2F50B2
:100F6000EE5C2B6E3050EE582C6E3150EE582D6EDC
:100F70003250EE582E6E050E206E216A226A236AC8
:100F80002BC01BF02CC01CF02DC01DF02EC01EF07D
:100F900079EC2CF01BC02BF01CC02CF01DC02DF0E8
:100FA0001EC02EF0BF0E2B26FF0E2C222D222E222D
:100FB0002BC04CF22CC04DF2BF0E2F6E3068316842
:100FC0003268370EDBCF33F0380EDBCF34F0356AC2
:100FD000366A34AE02D035683668D9500C0FE96EE7
:100FE000DACFEAFF3350EE5C1B6E3450EE581C6EC5
:100FF0003550EE581D6E3650EE581E6E050E206EA2
:10100000216A226A236A79EC2CF01B502F5C2B6E2C
:101010001C5030582C6E1D5031582D6E1E503258B9
:101020002E6E2BC04AF22CC04BF205D0020EF36E8E
:10103000210EF3CFDBFF59EF0DF0220EDBCF2BF0AB
:10104000010EE76E2B18E8AE02D02B3403D0E75028
:10105000D8802B5455E3220EDB5019E1340EDB50BF
:1010600016E02E0EDBCF1DF02F0EDBCF1EF00A0E8A
:101070001DC0DBFF0B0E1EC0DBFF88B807D0F00ED3
:10108000F36E320EF3CFDBFF330EDB6A38D0220E65
:10109000DB0417E1350EDB5014E0300EDBCF1DF022
:1010A000310EDBCF1EF00A0E1DC0DBFF0B0E1EC083
:1010B000DBFFF00EF36E320EF3CFDBFF330EDB6A95
:1010C0001ED0220EDB5002080CE1860EF36E0A0ED3
:1010D000F3CFDBFF0B0EDB6A320EDB6A330EDB6A0B
:1010E0000ED01E0EF36E0A0EF3CFDBFF010EF36E71
:1010F0000B0EF3CFDBFF320EDB6A330EDB6A0ED052
:101100001E0EF36E0A0EF3CFDBFF010EF36E0B0E15
:10111000F3CFDBFF320EDB6A330EDB6AD950300FC0
:10112000E96EDACFEAFFB40EEE1802E1010EED1817
:1011300010E1D9502E0FE96EDACFEAFFB40EEE18A7
:1011400002E1010EED1805E12C0EDB6A2D0EDB6AC3
:1011500039D0D950300FE96EDACFEAFF860EEE189B
:1011600001E1ED5016E1D9502E0FE96EDACFEAFF1A
:10117000B40EEE1802E1010EED180BE1A20EF36EB3
:101180002C0EF3CFDBFFFE0EF36E2D0EF3CFDBFF45
:1011900019D0D950300FE96EDACFEAFFB40EEE184D
:1011A00002E1010EED180EE1D9502E0FE96EDACFF3
:1011B000EAFF860EEE1801E1ED5004E12C0EDB6A29
:1011C0002D0EDB6A220EDB5004E02C0EDB6A2D0EA6
:1011D000DB6A170EDBCF1DF0180EDBCF1EF01B0EE7
:1011E0001DC0DBFF1C0E1EC0DBFF100E52C2DBFF5A
:1011F000110E53C2DBFF120E54C2DBFF130E55C299
:10120000DBFF010EF36E210EF3CFDBFF59EF0DF084
:10121000010EF36E230EF3CFDBFF010EF36E160EFD
:10122000F3CFDBFF220EDB5020E12C0EDBCF2BF0C7
:101230002D0EDBCF2CF0900E2B26E80E2C222D6AE3
:101240002E6A2CAE02D02D682E682E500201551940
:10125000E8AE02D0553508D052512B5C53512C5872
:1012600054512D5855512E5844E3220EDB0423E1EE
:10127000100EDBCF2FF0110EDBCF30F0120EDBCFD4
:1012800031F0130EDBCF32F08C0E2F26F10E302210
:10129000FF0E31223222325002015519E8AE02D03F
:1012A000553508D052512F5C535130585451315854
:1012B000555132581EE3220EDBCF33F0010EE76E9C
:1012C0003318E8AE02D0333403D0E750D88033541B
:1012D00001E322D1040EDBCF34F0050EDBCF35F075
:1012E000D890355004E6BC0E345C020E355801E34C
:1012F00013D1390EDB6A3A0EDB6A0A0EDBCF2DF012
:101300000B0EDBCF2EF0040EDB502D5C2B6E050E8A
:10131000DB502E582C6E090E226E236A2BC01DF056
:101320002CC01EF053EC2CF01DC02BF01EC02CF076
:101330003B0E2BC0DBFF3C0E2CC0DBFF0C0EDBCFCB
:10134000E6FF0D0EDBCFE6FF20EC16F0E552E5528E
:10135000F3CF2FF0F4CF30F0D890305004E69E0E4B
:101360002F5C020E30582CE20A0EDBCF33F00B0E4E
:10137000DBCF34F0040EDB50335C316E050EDB50F6
:101380003458326E31C0E6FF32C0E6FF20EC16F072
:10139000E552E552F3CF2BF0F4CF2CF00F0E226E76
:1013A000236A2BC01DF02CC01EF053EC2CF01DC086
:1013B0002BF01EC02CF0070E2B26000E2C2203D083
:1013C000040E2B6E2C6A2D6A2E6A2CAE02D02D686C
:1013D0002E682BC020F02CC021F02DC022F02EC092
:1013E00023F00C0EDBCF1BF00D0EDBCF1CF00E0E2E
:1013F000DBCF1DF00F0EDBCF1EF079EC2CF03D0E95
:101400001BC0DBFF3E0E1CC0DBFF3B0EDBCF2BF017
:101410003C0EDBCF2CF07F0E2B240201116F3D0E12
:10142000DBCF2BF03E0EDBCF2CF07F0E2B24126F88
:101430003B0EDBCF2BF03C0EDBCF2CF0BF0ED88069
:101440002B56FF0E2C563D0EDB5000012B240201C3
:101450004C6F3E0EDB5000012C2002014D6F3B0E05
:10146000DBCF2BF03C0EDBCF2CF0BF0E2B26FF0E7C
:101470002C223D0EDB5000012B5C02014A6F3E0E18
:10148000DB5000012C5802014B6F7F0E02014C25EE
:101490000201106F7F0E02014A250201136F170E21
:1014A000DBCF1DF0180EDBCF1EF0190E1DC0DBFFC9
:1014B0001A0E1EC0DBFF280EDBCF1DF0290EDBCF7E
:1014C0001EF02A0E1DC0DBFF2B0E1EC0DBFF260EFA
:1014D000DBCF1DF0270EDBCF1EF0280E1DC0DBFF7B
:1014E000290E1EC0DBFF240EDBCF1DF0250EDBCF47
:1014F0001EF0260E1DC0DBFF270E1EC0DBFF040EF4
:10150000DBCF1DF0050EDBCF1EF0240E1DC0DBFF70
:10151000250E1EC0DBFF4CD0220EDBCF2BF0020EBF
:10152000E76E2B18E8AE02D0E73402D0E7502B5C10
:101530003AE3170EDBCF2CF0180EDBCF2DF0010EA7
:10154000E76E190EDBCF2EF01A0EDBCF2FF0E7502F
:101550002E26000E2F222F502D18E8AE02D02D344B
:1015600004D02C502E5C2D502F5822E2170EDBCFCA
:1015700030F0180EDBCF31F0640EE76E1B0EDBCFC0
:1015800032F01C0EDBCF33F0E7503226000E332250
:1015900033503118E8AE02D0313404D03050325CD0
:1015A0003150335805E2030EF36E210EF3CFDBFF0B
:1015B00080D2010EF36E160EF3CFDBFFD950300F41
:1015C000E96EDACFEAFFB40EEE1802E1010EED1873
:1015D00013E1D9502E0FE96EDACFEAFFB40EEE1800
:1015E00002E1010EED1808E1030EF36E410EF3CF98
:1015F000DBFF420EDB6A36D0D950300FE96EDACF0E
:10160000EAFF860EEE1801E1ED5013E1D9502E0FDE
:10161000E96EDACFEAFFB40EEE1802E1010EED1822
:1016200008E1030EF36E410EF3CFDBFF420EDB6ADF
:1016300019D0D950300FE96EDACFEAFFB40EEE18A8
:1016400002E1010EED180EE1D9502E0FE96EDACF4E
:10165000EAFF860EEE1801E1ED5004E1410EDB6A6F
:10166000420EDB6A220EDB5004E0410EDB6A420EC2
:10167000DB6A220EDB500DE1300EDBCF1DF0310EA8
:10168000DBCF1EF03F0E1DC0DBFF400E1EC0DBFF98
:1016900007D0860EF36E3F0EF3CFDBFF400EDB6A02
:1016A000260EDBCF35F0270EDBCF36F0240EDB50D5
:1016B0003524336E250EDB503620346E280EDB5079
:1016C0003324316E290EDB503420326E2A0EDB506B
:1016D00031242F6E2B0EDB503220306E040E226E22
:1016E000236A2FC01DF030C01EF053EC2CF01DC03B
:1016F0002FF01EC030F01C0E226E236A2FC01DF08A
:1017000030C01EF053EC2CF01DC02FF01EC030F086
:10171000280ED8802F56000E30563F0EDBCF37F004
:10172000400EDBCF38F01C0E226E236A37C01DF04E
:1017300038C01EF053EC2CF01DC037F01EC038F03E
:1017400037502F5C2D6E385030582E6E410EDB50C6
:101750002D242B6E420EDB502E202C6E140E2BC02F
:10176000DBFF150E2CC0DBFF040EF36E210EF3CF52
:10177000DBFF9FD1010EF36E160EF3CFDBFF010EE0
:10178000F36E230EF3CFDBFF0C0EDBCF1CF00D0E40
:10179000DBCF1DF00E0EDBCF1EF00F0EDBCF1FF0E8
:1017A000FF0E1F18E8AE02D01F3409D08E0ED8806D
:1017B0001C54F90E1D54FF0E1E54FF0E1F5401E35E
:1017C00081D00C0EDBCF2DF00D0EDBCF2EF00E0EE8
:1017D000DBCF2FF00F0EDBCF30F0370E206E216AFB
:1017E000226A236A2DC01BF02EC01CF02FC01DF0F2
:1017F00030C01EF079EC2CF01BC02DF01CC02EF078
:101800001DC02FF01EC030F02DC0E6FF2EC0E6FF39
:1018100020EC16F0E552E552F3CF2BF0F4CF2CF08C
:10182000E00ED8802B56FF0E2C56140EDB50000114
:101830002B2402014C6F150EDB5000012C200201FD
:101840004D6F0C0EDBCF2DF00D0EDBCF2EF00E0EFC
:10185000DBCF2FF00F0EDBCF30F0370E206E216A7A
:10186000226A236A2DC01BF02EC01CF02FC01DF071
:1018700030C01EF079EC2CF01BC02DF01CC02EF0F7
:101880001DC02FF01EC030F02DC0E6FF2EC0E6FFB9
:1018900020EC16F0E552E552F3CF2BF0F4CF2CF00C
:1018A000E00ED8802B56FF0E2C56140EDB50000194
:1018B0002B5C02014A6F150EDB5000012C5802010F
:1018C0004B6F0ED0000E0101E26FE36B0101D36F8D
:1018D000D46B220EDB2A050EF36E210EF3CFDBFF55
:1018E000E8D0010EF36E230EF3CFDBFF040EDBCF47
:1018F0002BF0050EDBCF2CF0D8902C5004E6BC0E5C
:101900002B5C020E2C581DE2170EDBCF2BF0180EAD
:10191000DBCF2CF0190EDBCF2DF01A0EDBCF2EF023
:101920002E502C18E8AE02D02C3404D02B502D5C55
:101930002C502E5805E2020EF36E210EF3CFDBFF82
:1019400061D00C0EDBCF2BF00D0EDBCF2CF00E0E8A
:10195000DBCF2DF00F0EDBCF2EF0070E206E216AAD
:10196000226A236A2BC01BF02CC01CF02DC01DF076
:101970002EC01EF079EC2CF01BC02BF01CC02CF0FC
:101980001DC02DF01EC02EF0BF0E2B26FF0E2C22E8
:101990002D222E222BC04CF22CC04DF2BF0E2F6EEA
:1019A0003068316832680C0EDBCF1BF00D0EDBCFD8
:1019B0001CF00E0EDBCF1DF00F0EDBCF1EF0070E5E
:1019C000206E216A226A236A79EC2CF01B502F5C6E
:1019D0002B6E1C5030582C6E1D5031582D6E1E50E1
:1019E00032582E6E2BC04AF22CC04BF2170EDBCFB2
:1019F0001DF0180EDBCF1EF0190E1DC0DBFF1A0EF6
:101A00001EC0DBFF56D00C0EDBCF2BF00D0EDBCF54
:101A10002CF00E0EDBCF2DF00F0EDBCF2EF0050ECF
:101A2000206E216A226A236A2BC01BF02CC01CF096
:101A30002DC01DF02EC01EF079EC2CF01BC02BF039
:101A40001CC02CF01DC02DF01EC02EF0BF0E2B268A
:101A5000FF0E2C222D222E222BC04CF22CC04DF238
:101A6000BF0E2F6E3068316832680C0EDBCF1BF072
:101A70000D0EDBCF1CF00E0EDBCF1DF00F0EDBCFFB
:101A80001EF0050E206E216A226A236A79EC2CF082
:101A90001B502F5C2B6E1C5030582C6E1D50315833
:101AA0002D6E1E5032582E6E2BC04AF22CC04BF2B7
:101AB00000D0320EDBCF2FF0330EDBCF30F0316AA7
:101AC000326A30AE02D0316832682FC0E6FF30C0D3
:101AD000E6FF31C0E6FF32C0E6FF11EC2BF0E55225
:101AE000E7CF32F0E552E7CF31F0E552E7CF30F003
:101AF000E552E7CF2FF01B502F5C2B6E1C50305857
:101B00002C6E1D5031582D6E1E5032582E6E2BC02B
:101B1000E6FF2CC0E6FFE90EE66E010EE66EC6ECAF
:101B200022F0E552E552E552E5520201086F066FD8
:101B3000350EDB5013E08D9A0A0E2B6E2C6A300E98
:101B4000DBCF1DF0310EDBCF1EF02BC022F02CC0FE
:101B500023F053EC2CF01DC019F216D0340EDB50DC
:101B600013E08D8A0A0E2B6E2C6A2E0EDBCF1DF031
:101B70002F0EDBCF1EF02BC022F02CC023F053EC35
:101B80002CF01DC018F200D01BC21AF28D90340E3A
:101B9000E66E5C0EE66E000EE66ED0EC2DF0E552C1
:101BA000E552E55248C2E6FF49C2E6FF20EC16F0D6
:101BB000E552E552F3CF2BF0F4CF2CF0D8902C5017
:101BC00004E6030E2B5C000E2C5837E246C2E6FFFB
:101BD00047C2E6FF20EC16F0E552E552F3CF2DF0B8
:101BE000F4CF2EF0D8902E5004E6030E2D5C000E9C
:101BF0002E5823E2170EDBCF2BF0180EDBCF2CF084
:101C0000440EE76E1F0EDBCF2DF0200EDBCF2EF043
:101C1000E7502D26000E2E222E502C18E8AE02D0B2
:101C20002C3404D02B502D5C2C502E5805E2010E84
:101C3000F36E360EF3CFDBFF0CD0170EDBCF1DF0AB
:101C4000180EDBCF1EF01F0E1DC0DBFF200E1EC0C6
:101C5000DBFF02014C510201485D2B6E495102012C
:101C60004D552C6E2BC0E6FF2CC0E6FFCB0EE66E6A
:101C7000010EE66EC6EC22F0E552E552E552E55261
:101C800002010A6F096F02014A510201465D2B6E83
:101C9000475102014B552C6E2BC0E6FF2CC0E6FFCE
:101CA000DA0EE66E010EE66EC6EC22F0E552E55263
:101CB000E552E55202010C6F0B6F220EDBCF0FF2E3
:101CC000210EDBCF04F2170EDB2A180E01E3DB2A0C
:101CD00009D002017F0E0C6F0CC20BF20CC20AF28B
:101CE0000CC209F2000EE66E020EE66E7DEC1CF0F0
:101CF000E552E55208D86AEF05F0D9CFE1FFE55289
:101D0000E7CFD9FF1200D9CFE6FFE1CFD9FF040E0C
:101D1000E1267DEC2AF01BC052F21CC053F21DC01C
:101D200054F21EC055F2C7EC2AF01BC04EF21CC084
:101D30004FF21DC050F21EC051F2C9EC2FF0020E3E
:101D4000E66EDBEC25F0E552F3CF2BF0F4CF2CF070
:101D50000A0E226E236A2BC01DF02CC01EF017EC59
:101D600030F01DC02BF01EC02CF02BC002F211EC85
:101D70002BF01BC003F25EEC29F01BC02BF01CC043
:101D80002CF01DC02DF01EC02EF07F0E206E216A9B
:101D9000226A236A2BC01BF02CC01CF02DC01DF042
:101DA0002EC01EF0A3EC2EF017C02BF018C02CF0A4
:101DB00019C02DF01AC02EF0100E206E0E0E216EDE
:101DC000226A236A2BC01BF02CC01CF02DC01DF012
:101DD0002EC01EF079EC2CF01BC02BF01CC02CF098
:101DE0001DC02DF01EC02EF07F0E2B26000E2C22C3
:101DF0002D222E222BC01BF27F0E0201482502014C
:101E00000D6F7F0E0201462502010E6F850EE96EF1
:101E1000020EEA6EEE500201891909E1EE508A19AC
:101E200006E1EE508B1903E1EE508C1900E101E15F
:101E300080D0890EE96E020EEA6EEE500201855DD9
:101E40002F6EEE508659306EEE508759316EEE503F
:101E50008859326E5A0EE96E020EEA6EEE50020199
:101E6000525D2B6EEE5053592C6EEE5054592D6E20
:101E7000EE5055592E6E2BC01BF02CC01CF02DC0FF
:101E80001DF02EC01EF02FC020F030C021F031C058
:101E900022F032C023F0D4EC2FF01BC048F21CC05B
:101EA00049F2890EE96E020EEA6EEE500201855D7E
:101EB0002F6EEE508659306EEE508759316EEE50CF
:101EC0008859326E560EE96E020EEA6EEE5002012D
:101ED0004E5D2B6EEE504F592C6EEE5050592D6EBC
:101EE000EE5051592E6E2BC01BF02CC01CF02DC093
:101EF0001DF02EC01EF02FC020F030C021F031C0E8
:101F000022F032C023F0D4EC2FF01BC046F21CC0EC
:101F100047F252C25AF253C25BF254C25CF255C24B
:101F20005DF24EC256F24FC257F250C258F251C241
:101F300059F2850EE96E020EEA6EEE5002018D5DD9
:101F4000EE508E59EE508F59EE5090593BE20201FF
:101F50002151400B37E123AD34D002014C51020135
:101F6000485D2B6E495102014D552C6E2BC0E6FF8A
:101F70002CC0E6FFCB0EE66E010EE66EC6EC22F03C
:101F8000E552E552E552E55202010A6F096F02017E
:101F90004A510201465D2B6E475102014B552C6E92
:101FA0002BC0E6FF2CC0E6FFDA0EE66E010EE66EF1
:101FB000C6EC22F0E552E552E552E55202010C6F03
:101FC0000B6F09D002017F0E0C6F0CC20BF20CC21A
:101FD0000AF20CC209F250EC26F0000904E003EC0E
:101FE0002AF060EC26F08850800B02E0919001D03E
:101FF000918085C289F286C28AF287C28BF288C23A
:102000008CF2D9CFE1FFE552E7CFD9FF1200D9CF4B
:0E201000E6FFE1CFD9FFE552E7CFD9FF12007E
:02201E004BEC89
:1020200015F0FB0EDBCFF3FFDB06F35000090AE0EF
:1020300099EC15F0FA0E04EC16F0F3E12C1CF1E12A
:10204000010E01D0000E7AEF15F04BEC15F03B0EAF
:10205000E12402E3E168E652E16E010EDB6A020E62
:10206000DB6AF90EDBCFF6FFFA0EDBCFF7FFFB0ED4
:10207000DBCFF8FF0800F550DF6EDF5002E1A0EF84
:1020800014F0250EDF5C02E093EF14F0030EDB6A20
:10209000040EDB6A050EDB6A060EDB6A070EDB6ADE
:1020A000B3EC14F02D0EDF5C0CE02B0EDF5C09E0CE
:1020B000200EDF5C06E0230EDF5C03E0300EDF5C09
:1020C0001AE1DF50300A14E0130A0FE0030A0AE0B5
:1020D0000B0A05E0060AE4E1030EDB80E1D7030EFC
:1020E000DB82DED7030EDB84DBD7030EDB86D8D79B
:1020F000030EDB88D5D72A0EDF5C1BE1AFEC14F0B2
:10210000FDEC14F010E0030EDB801D681E68130E5A
:10211000DBCF22F0140EDBCF23F0ADEC2CF0040E5D
:102120001BC0DBFF03D0130EE6EC14F0B3EC14F08D
:102130000BD0090EDB6A54EC15F003E0C8EC15F087
:10214000FAD7090EE6EC14F0030EDBB0DB982E0E86
:10215000DF5C1BE1B3EC14F02A0EDF5C0BE1AFECAB
:1021600014F0FDEC14F003E1130E38EC15F0B3ECB1
:1021700014F00BD0090EDB6A54EC15F003E0C8EC48
:1021800015F0FAD7090E38EC15F0680EDF5C07E1A0
:10219000B3EC14F0680EDF5C1DE1030E18D0740E72
:1021A000DF5C17E07A0EDF5C14E0480EDF5C06E0CF
:1021B000540EDF5C03E05A0EDF5C02E1020E07D032
:1021C0006C0EDF5C03E06A0EDF5C04E1010E8BEC59
:1021D00015F0C9DBDF506E0A01E181D31E0A01E16F
:1021E00092D1200A01E18FD13F0A01E149D11A0AB7
:1021F00001E146D10D0A01E143D1200A01E140D1BC
:102200003A0A01E13DD1200A01E13AD1260A01E171
:1022100035D10D0A01E132D11A0A01E1D9D0200AE3
:102220004AE0300A1FE0460A0EE0250A01E085D3A5
:10223000D950F90FE96EFF0EDA20EA6E010EEE5E5C
:10224000000EEE5AEE5A99EC15F0250EE66E95DB6F
:1022500003E12C1C01E16BD395EC15F001E26DD389
:10226000DB2A6BD3080EDB6A040EDB50010806E2A2
:10227000040EDB045DEC15F0DB508BDB080EDB504D
:1022800009E0030EDB50010B05E172DB01E04FD3E7
:10229000080EDB6A64DBEFCFDFFF0DEC16F003E125
:1022A0002C1C01E144D395EC15F001E3DB2A60DB43
:1022B00001E143D33CD3070EDB5002080FE1D9EC18
:1022C00015F0030EA0EC15F00E0EEECFDBFF0F0E97
:1022D000EECFDBFF100EEECFDBFF20D0F70EDBCF13
:1022E0002EF0F80EDBCF2FF0020E2E5E000E2F5ACE
:1022F000F70E2EC0DBFFF80E2FC0DBFF2EC0E9FF6C
:102300002FC0EAFF90EC15F02D6A0E0E2BC0DBFFFC
:102310000F0E2CC0DBFF100E2DC0DBFF0E0EDBCF2F
:10232000E6FF0F0EDBCFE6FF100EDBCFE6FFABECD8
:102330002DF0E552E552E552130E1CC0DBFF140EE2
:102340001DC0DBFF060EDB5005E0130ED4EC15F0CC
:1023500001E26ADBF8EC15F002E2130E37DBBBECAE
:1023600015F006E0040ED4EC15F002E2050E2EDBAB
:10237000030EDBB005D0FCDA01E0D9D2080EDB6A2F
:10238000090EDB6A0E0EDBCFF6FF0F0EDBCFF7FF79
:10239000100EDBCFF8FF0800F550DF6EDF5014E0C1
:1023A000FEEC15F011E20DEC16F003E12C1C01E13E
:1023B000BED2BBDB01E3DB2A090EDB2AD9500E0FAC
:1023C000E96E000ECBDBE7D7D3DA01E1B6D2AFD2AC
:1023D000C6DA110EEECFDBFF120EEDCFDBFF110ED2
:1023E000DBCFE6FF120EDBCFE6FF9DEC2DF0E552D2
:1023F000E552130EF3CFDBFF140EF4CFDBFF060E16
:10240000DB5004E0130ED0DB01E20EDBF8EC15F03C
:1024100002E2130EDBDAAFDB05E0040EC5DB02E2FD
:10242000050ED4DA030EDBB005D0A2DA01E07FD2CC
:10243000080EDB6A090EDB6A110EDBCFE9FF120E14
:10244000DBCFEAFFEFCFDFFFDF5014E0D7DB12E294
:10245000E4DB03E12C1C01E16AD267DB01E3DB2A48
:10246000090EDB2A110EDB2ADBCFE9FF120EE8E3AF
:10247000DB2AE6D77DDA01E160D259D2030EDB8E8A
:10248000070EDB0410E195DB040E5ADB0A0EEECFDB
:10249000DBFF0B0EEECFDBFF0C0EEECFDBFF0D0EE6
:1024A000EECFDBFF6CD0070EDB5003082CE1030EF0
:1024B000DBAE0DD0B2DA020E76DAEFCF2BF02C6A5B
:1024C0002D6A2E6A2BAE39D02C682D6835D0F70EC8
:1024D000DBCF2CF0F80EDBCF2DF0020E2C5E000EC1
:1024E0002D5AF70E2CC0DBFFF80E2DC0DBFF2CC0E1
:1024F000E9FF2DC0EAFFEFCF2BF00A0E2BC0DBFF68
:102500000B0EDB6A38D0070EDB50020809E1030E20
:10251000DBAE04D059DB2DAE10D00ED055DB0DD084
:10252000030EDBAE12D079DA020E3DDAF9DA2D6A4B
:102530002E6A2CAE02D02D682E68E2DA0C0E2DC069
:10254000DBFF0D0E2EC0DBFF1AD0F70EDBCF2DF018
:10255000F80EDBCF2EF0020E2D5E000E2E5AF70E77
:102560002DC0DBFFF80E2EC0DBFF2DC0E9FF2EC013
:10257000EAFFD6DAC5DA0C0EDB6A0D0EDB6A060E50
:10258000DB5005E1010EF36E050EF3CFDBFF150EF8
:10259000DB6A160EDB6AD950370F2B6E000EDA207D
:1025A0002C6E390E2BC0DBFF3A0E2CC0DBFF380E31
:1025B000DB6A080EDB6A0A0EAEDADF50780A12E038
:1025C000200A10E0280A0CE0200A0AE03F0A06E090
:1025D0000D0A02E0200A08E1020E05D0080E03D021
:1025E000080EDF26100E97DA030EDBBE02D0DB9258
:1025F000DB94DB50800B26E08ADA030EEB50000AF6
:10260000E8AE02D0D89008D0000EEE5C000EEE5876
:10261000000EEE58000EEE5815E211DA206821681F
:1026200022682368A3EC2EF00A0E17C0DBFF0B0E06
:1026300018C0DBFF0C0E19C0DBFF0D0E1AC0DBFF4C
:102640002D0E08D0030EDBA202D02B0E03D0DBA48C
:1026500008D0200EF36E170EF3CFDBFF150EDB2A2A
:1026600002D0170EDB6A050EDB5003E1B5D901E19C
:1026700089D0180E2B6E610E2C6E000E2D6E070E7B
:10268000DBCF2EF02F6A306A316A2EC020F02FC0C7
:1026900021F030C022F031C023F0D1D9D4EC2FF09A
:1026A0002B501724F36E2C501820F46E2D50192047
:1026B000F86EF4CFF7FFF3CFF6FF0800090EF5CF61
:1026C000DBFF580EDF5C0FE1610EF36E090E79D966
:1026D0000AE3200E2B6E090EDBCFE7FF2B50E75EDF
:1026E000090EE7CFDBFF070EDBCF2BF02C6A2D6A3C
:1026F0002E6A0DDA2BC020F02CC021F02DC022F064
:102700002EC023F0EECF1BF0EECF1CF0EECF1DF06D
:10271000EFCF1EF0D4EC2FF01EC0EDFF1DC0EDFF7B
:102720001CC0EDFF1BC0EFFF390EDBCFE9FFDB065E
:102730003A0EDBCFEAFF01E2DB06090EDBCFEFFF4B
:10274000150EDB2A49D995E1030EDBA61DD06F0ECD
:10275000DF5C06E1BFD918E3150EDB2859DA14D087
:10276000780EDF5C09E0580EDF5C06E0620EDF5C8D
:1027700003E0420EDF5C08E1020EF36E160EF3CFAB
:10278000DBFF02D0150EDB6A030EDB50100B0EE0F0
:10279000040EDBCF2BF0050EDB50D8802B5406E265
:1027A000060EDB5003E1040EDB5032DA93D90AE265
:1027B000050EDBCFE7FF150EDB50E75E050EE7CF1A
:1027C000DBFF02D0050EDB6A040EDBCF2BF0160E0A
:1027D00043D9D8802B5414E2160EDBCFE6FF150E3A
:1027E000DBCFE6FF040EDBCFE6FF050EDB50E55244
:1027F000E75CE552D880E754E552D880E7545DD9CC
:10280000030EDB50010B0BE1080EDB5008E0B0D8E3
:1028100001E08DD0080EDB50BCD8080EDB6A170E25
:10282000DB5007E086D9170EEFD903E12C1C01E13C
:102830007ED0160EDB5016E07CD9300EE66E9DD8A9
:1028400002E12C1C74E075D9DFCFE6FF61EC2EF0BD
:10285000E552E552E552F4CF2CF00001F31C02E101
:102860002C1C65E0050EDBCF2BF0160EDB50D8805C
:102870002B5409E2050EDBCFE7FF160EDB50E75EB7
:10288000050EE7CFDBFF300EE66E050EC9D94FE12E
:10289000390EDB2ADBCFE9FF3A0E01E3DB2ADBCF7F
:1028A000EAFF090EEFCFDBFFDB500EE042D9090E45
:1028B000ABD902E12C1C3BE0390EDB2ADBCFE9FF70
:1028C0003A0EEDE3DB2AEBD753D831E1160EDBCF1E
:1028D000E6FF080EC1D8E552E7245BD82ED0070EDC
:1028E000DB50030A1CE0010A14E0030A07E079D96F
:1028F000DBCFEEFF020EDBCFEDFF1FD0F3D8306A47
:102900002EAE02D02F6830682AD8BAD830C0EEFF79
:1029100014D0E8D82EBE2F6822D8B2D80ED061D9F4
:10292000DBCFEFFF0AD079D905E12C1C03E1F36876
:10293000F46810D0FAD801E3DB2A77D93AEF10F027
:10294000010EDBCF2BF0020EDBCF2CF02BC0F3FF00
:102950002CC0F4FFD9CFE1FFDACFE2FFCBD029D9E9
:10296000020EA0EF15F061D90800F550DF6E1200DD
:10297000200EE66E080E10EF16F061EC2EF0E55218
:10298000E552E552F3CF2BF0F4CF2CF00001F31C0D
:1029900012002B6E2C6AD950010F4DD92B50EE2608
:1029A0002C50ED2212002F5E000E305AF70E2FC071
:1029B000DBFFF80E30C0DBFF2FC0E9FF30C0EAFFBD
:1029C0001200DBCFF4FFF350F45C1200DB50E76E33
:1029D000040EE7CFDBFF12000A0EDBCF2BF00B0E4D
:1029E000DBCF2CF00C0EDBCF2DF00D0EDBCF2EF05D
:1029F0002B502C102D102E101200130EEECFDBFFDB
:102A0000140EEDCFDBFF130EDBCF2BF0140EDBCF5C
:102A10002CF00001800E2C141200F70EDBCF2FF0EB
:102A2000F80EDBCF30F01200050EDB50E66ED95009
:102A3000130F01D9E552E750EE6EED6A12000A0E4F
:102A4000DBCF1BF00B0EDBCF1CF00C0EDBCF1DF031
:102A50000D0EDBCF1EF01200DBCFE6FF150EDBCF35
:102A6000E6FF050EDB50E552E724E552E7241200AD
:102A7000DB50CED8010EF36E060EF3CFDBFF120053
:102A8000EE50EFCFEAFFE96E2DC0EEFF2EC0EEFF55
:102A90002FC0EEFF1200D9CFE6FFDACFE6FFE1CF7D
:102AA000D9FFE2CFDAFF1200DFCFE6FFE66A41ECA2
:102AB00030F0E552E552F3501200E76E080EE7CF12
:102AC000DBFF1200EECF2BF0EECF2CF0EFCF2DF08E
:102AD0002E6A1200050EDBCF2BF0150EDB50D880CE
:102AE0002B541200010EDBCF2DF0020EDBCF2EF0A7
:102AF0002F6A1200E552E5CFDAFFE7CFD9FF1200C7
:102B00000A0E2BC0DBFF0B0E2CC0DBFF1200D950CE
:102B10000A0F1BEF16F0F36E070EF3CFDBFF120068
:102B2000EECF2BF0EFCF2CF01200010EDB2A020EBD
:102B30001200FC0EDBCFE6FFFD0EDBCFE6FF12003E
:102B40002B5E000E2C5AF70E2BC0DBFFF80E2CC0AC
:102B5000DBFF2BC0E9FF2CC0EAFF1200DA20EA6E8F
:102B6000EF2AEECFF6FF000EEF22EECFF7FFEF22B7
:102B7000EECFF8FF1200040EDBCFE6FF130EDB50A2
:102B8000E552E75C9ADFDB5004DF060EDB501200F3
:102B9000090EDB500A0DF350DF24D00FE76E090E4B
:102BA000E7CFDBFFB3EF14F0DB50F36E050EE1EF80
:102BB00014F0F70EDBCF2BF0F80EDBCF2CF0120069
:102BC000DFCFE6FFBDEF14F028DF030EECDE62EF8F
:102BD00015F00FEC10F0E552E552E552E552000910
:102BE0001200BDDEEE50EFCFEAFFE96E010E1200DB
:102BF000130EDB50F36E040EE1EF14F0040EDB5005
:102C0000F36E090EE1EF14F0DBCFE6FFBDEF14F039
:102C1000E76E050EE7CFDBFF12008BDFE0EF15F06C
:102C2000DBCFE6FF86DFE9EF15F0D950F90FE96E4B
:102C3000FF0EAEEF15F0E96E000EDA20EA6E12001C
:102C4000D9CFE6FFE1CFD9FFFD0EDBCF2DF0FE0E91
:102C5000DBCF2EF02E3404E22D500008000E2E544F
:102C600007E2FD0EDBCF2BF0FE0EDBCF2CF00AD0FF
:102C7000FD0EDBCF2BF0FE0EDBCF2CF02B6C2C1ED1
:102C8000000E2C222BC0F3FF2CC0F4FF00D0E55225
:102C9000E7CFD9FF1200D9CFE6FFE1CFD9FFFD0E74
:102CA000DBCF2DF0FE0EDBCF2EF0FB0EDBCF2FF0B7
:102CB000FC0EDBCF30F030502E18E8AE02D02E34B0
:102CC00004D02D502F5C2E50305807E2FD0EDBCF84
:102CD0002BF0FE0EDBCF2CF006D0FB0EDBCF2BF063
:102CE000FC0EDBCF2CF02BC0F3FF2CC0F4FF00D088
:102CF000E552E7CFD9FF1200D9CFE6FFE1CFD9FFE8
:102D0000FB0EDBCF2DF0FC0EDBCF2EF0FD0EDBCF6C
:102D10002FF0FE0EDBCF30F030502E18E8AE02D090
:102D20002E3404D02D502F5C2E50305807E2FD0E6B
:102D3000DBCF2BF0FE0EDBCF2CF006D0FB0EDBCF73
:102D40002BF0FC0EDBCF2CF02BC0F3FF2CC0F4FFDC
:102D500000D0E552E7CFD9FF1200D9CFE6FFE1CF8F
:102D6000D9FFFD0EDBCFE6FFFE0EDBCFE6FF68DF0F
:102D7000E552E552FD0EF3CFDBFFFE0EF4CFDBFF95
:102D8000B40E2B6E590E2C6E000E2D6EFD0EDBCF89
:102D90002EF0FE0EDBCF2FF0306A2FBE30682B50A6
:102DA0002E24F36E2C502F20F46E2D503020F86E10
:102DB000F4CFF7FFF3CFF6FF0800F55000D0E5524F
:102DC000E7CFD9FF1200D9CFE6FFE1CFD9FFFE0E42
:102DD000DB5011E1FC0EDBCFE9FFFD0EDBCFEAFF9C
:102DE000EF507F0808E2FC0EDBCFE9FFFD0EDBCFE2
:102DF000EAFF7F0EEF6EE552E7CFD9FF1200D9CF81
:102E0000E6FFE1CFD9FFFE0EDB5013E1FC0EDBCF76
:102E1000E9FFFD0EDBCFEAFFEFCF2BF07F0E2B5C3F
:102E200008E2FC0EDBCFE9FFFD0EDBCFEAFF7F0EF1
:102E3000EF6EE552E7CFD9FF1200D9CFE6FFE1CF21
:102E4000D9FFFD0EDBCF2BF0FE0EDBCF2CF0D890A0
:102E50002C5004E6D00E2B5C070E2C5806E2010124
:102E6000D00EF86F070EF96F19D0FD0EDBCF2BF0E7
:102E7000FE0EDBCF2CF02C3404E22B50CE08080ED3
:102E80002C5406E20101CE0EF86F080EF96F06D041
:102E9000FD0EDBCFF8F1FE0EDBCFF9F1F8C12BF020
:102EA000F9C12CF0D00E2B5E070E2C5A2B5000D0FF
:102EB000E552E7CFD9FF1200F00EE66E05EC2CF0DC
:102EC000E552938A93889386938499829980938E0E
:102ED000938C9A849A82998699849A8A9A88948003
:102EE0009A869A8E9A8C02017F0E0B6F0BC20AF2A1
:102EF0000BC209F20BC208F20BC207F20BC206F2B8
:102F00000BC205F20BC204F2136F13C212F213C20A
:102F100011F213C210F213C20FF213C20EF213C257
:102F20000DF213C20CF2000EE66EE66AE66EE66A79
:102F3000E66EE66AE66EE66ABFEC1CF0F56E080E19
:102F4000E15EF550000EE66E020EE66E7DEC1CF0C2
:102F5000E552E55269EC2AF0BCEC2FF0010EE66E6A
:102F6000E66A410EE66EE66A000EE66EE66A730EEB
:102F7000E66EE66ADC0EE66EE66ACB0EE66E010EE3
:102F8000E66E2BEC22F0F56E0C0EE15EF550010EB4
:102F9000E66EE66A410EE66EE66A000EE66EE66AE8
:102FA000730EE66EE66ADC0EE66EE66ADA0EE66E32
:102FB000010EE66E2BEC22F0F56E0C0EE15EF55084
:102FC000080EE66EE66A640EE66EE66A000EE66ECF
:102FD000E66A960EE66EE66AE66EE66AE90EE66E6A
:102FE000010EE66E2BEC22F0F56E0C0EE15EF55054
:102FF000F7EC2BF001EC29F038EC25F0990EE66E99
:103000005C0EE66E000EE66ED0EC2DF0E552E55259
:10301000E55204EF1CF0200EE66E020EE66E64EC44
:103020001CF0E552E55206D988AC47D00201060EE5
:10303000601901E1615104E1A7EC29F08D8A3CD0CF
:10304000C80E601901E1615105E1B3EC29F0E9EC2A
:1030500029F032D0613504E26051C808000E615594
:103060002BE28D9A60C22BF061C22CF0140E226EFE
:10307000236A2BC01DF02CC01EF053EC2CF019C09D
:103080002BF01AC02CF02B502C1016E1D5EC29F0A7
:10309000F3CF2BF0F4CF2CF02BC0E6FF2CC0E6FFD3
:1030A000940EE66E5C0EE66E000EE66ED0EC2DF031
:1030B000F56E050EE15EF550B0D0E20EE66E030E41
:1030C000E66EDBEC29F0E552E55260C22BF061C2FE
:1030D0002CF00A0E226E236A2BC01DF02CC01EF0AD
:1030E00053EC2CF019C02BF01AC02CF02B502C10E4
:1030F00001E093D05EC2E6FF5FC2E6FF880EE66E97
:103100005C0EE66E000EE66ED0EC2DF0F56E050E50
:10311000E15EF5504EC2E6FF4FC2E6FF50C2E6FF49
:1031200051C2E6FF52C2E6FF53C2E6FF54C2E6FFB9
:1031300055C2E6FF710EE66E5C0EE66E000EE66EA0
:10314000D0EC2DF0F56E0B0EE15EF55046C2E6FFB9
:1031500047C2E6FF48C2E6FF49C2E6FF5C0EE66EE4
:103160005C0EE66E000EE66ED0EC2DF0F56E070EEE
:10317000E15EF55011EC2BF01BC02BF01CC02CF0C5
:103180001DC02DF01EC02EF02BC0E6FF2CC0E6FFA8
:103190002DC0E6FF2EC0E6FF540EE66E5C0EE66E16
:1031A000000EE66ED0EC2DF0F56E070EE15EF550E8
:1031B000D5EC29F0F3CF2BF0F4CF2CF02BC0E6FFA9
:1031C0002CC0E6FF5EEC29F01BC02DF01CC02EF0D9
:1031D0001DC02FF01EC030F02DC0E6FF2EC0E6FF50
:1031E0002FC0E6FF30C0E6FF020EE66EDBEC25F0F6
:1031F000E552F3CF31F0F4CF32F031C0E6FF32C008
:10320000E6FF410EE66E5C0EE66E000EE66ED0EC5A
:103210002DF0F56E0B0EE15EF5500201602B000EF5
:103220006123000EE66E020EE66E7DEC1CF0E552A8
:10323000E5521200D9CFE6FFE1CFD9FF040EE12617
:10324000640EDE6EDE6ADE6ADD6ADD52DD52C9ECD6
:103250002FF002012351800B01E0010E0101FA5D04
:1032600008E002012351800B04E062C264F263C2F1
:1032700065F2020123AF79D02C51306AD00F2F6E46
:10328000070E3022285100012F242D6E000E302011
:103290002E6E7F0E2D5E000E2E5A2DC0E6FF2EC024
:1032A000E6FFCBDDE552E5522B6E2C6A7F0E2B5EDE
:1032B000000E2C5A430E1D6E1E6A2BC022F02CC02D
:1032C00023F0ADEC2CF01BC04AF21CC04BF2020103
:1032D0004A6D4B1F000E4B237F0E226E236A4AC29B
:1032E0001DF04BC21EF053EC2CF01DC04AF21EC064
:1032F0004BF202012C51306AD00F2F6E070E302294
:103300002851316E326A31502F5C2D6E3250305858
:103310002E6E7F0E2D26000E2E222DC0E6FF2EC013
:10332000E6FF8BDDE552E5522B6E2C6A7F0E2B5E9D
:10333000000E2C5A430E1D6E1E6A2BC022F02CC0AC
:1033400023F0ADEC2CF01BC04CF21CC04DF27F0EF4
:10335000226E236A4CC21DF04DC21EF053EC2CF0BD
:103360001DC04CF21EC04DF278D02C51306AD00FE7
:103370002F6E070E3022285100012F242D6E000ED3
:1033800030202E6E7F0E2D5E000E2E5A2DC0E6FFD1
:103390002EC0E6FF52DDE552E5522B6E2C6A7F0E01
:1033A0002B5E000E2C5A1F0E1D6E1E6A2BC022F0C3
:1033B0002CC023F0ADEC2CF01BC04AF21CC04BF229
:1033C00002014A6D4B1F000E4B237F0E226E236AB3
:1033D0004AC21DF04BC21EF053EC2CF01DC04AF245
:1033E0001EC04BF202012C51306AD00F2F6E070E17
:1033F00030222851316E326A31502F5C2D6E32509E
:1034000030582E6E7F0E2D26000E2E222DC0E6FF88
:103410002EC0E6FF12DDE552E5522B6E2C6A7F0EC0
:103420002B5E000E2C5A1F0E1D6E1E6A2BC022F042
:103430002CC023F0ADEC2CF01BC04CF21CC04DF2A4
:103440007F0E226E236A4CC21DF04DC21EF053EC5B
:103450002CF01DC04CF21EC04DF202012351800B16
:1034600002E08D9001D08D802351100B02E08D92EF
:1034700001D08D8222A105D026C208F226C206F212
:1034800040D023A139D0F00E2F6E306A316A326AF3
:103490002FC0E6FF30C0E6FF31C0E6FF32C0E6FFD6
:1034A00011EC2BF0E552E7CF32F0E552E7CF31F0E7
:1034B000E552E7CF30F0E552E7CF2FF01B502F5CFD
:1034C0002B6E1C5030582C6E1D5031582D6E1E50D6
:1034D00032582E6E2BC0E6FF2CC0E6FFE90EE66EDA
:1034E000010EE66EC6EC22F0E552E552E552E552D9
:1034F0000201086F066F05D002017F0E086F08C237
:1035000006F202012251020B01E0010E0201416F9D
:1035100002012351200B29E08C9C28D0020141514B
:1035200004E08C8C8D9C8D821FD0D9CFE9FFDACF3F
:10353000EAFF030EEB50000AE8AE02D0D89008D0A4
:103540007F0EEE5C000EEE58000EEE58000EEE58A8
:1035500002E28D9201D08D82020123A903D08C8CCE
:103560008D9C02D08C9C8D8C07D08C8C2351200B91
:1035700002E08D8C01D08D9C8150800B09E1875039
:10358000010B06E18750020B03E18750040B01E0B9
:1035900000D0020123BD76D0070E02012C6A6425FB
:1035A0002B6E65512C222C506319E8AE02D0633586
:1035B00004D062512B5C63512C585BE202012C5108
:1035C0002F6E306AFF0ED8802F56000E3056D00E68
:1035D0002F26070E3022285100012F242D6E000EB9
:1035E00030202E6E7F0E2D5E000E2E5A2DC0E6FF6F
:1035F0002EC0E6FF22DCE552E5522B6E2C6A7F0ED0
:103600002B5E000E2C5A7F0E2B2402010A6F096FCD
:1036100002012C512F6E306AFF0ED8802F56000EFB
:103620003056D00E2F26070E30222851316E326AC6
:1036300031502F5C2D6E325030582E6E7F0E2D265D
:10364000000E2E222DC0E6FF2EC0E6FF1DEC17F067
:10365000E552E5522B6E2C6A7F0E2B5E000E2C5A23
:103660002B6C2C1E2C227F0E2B2402010C6F0B6F57
:1036700009D002017F0E0C6F0CC20BF20CC20AF2D1
:103680000CC209F20201622B000E632302012351D6
:10369000800B01E0010E0101FA6FD9CFE1FFE55285
:0636A000E7CFD9FF120084
:0A36A600D8CFE4FFE0CFE4FFE46EAC
:1036B000DACFE4FFE2CFDAFFE9CFE4FFEACFE4FFBD
:1036C000E652F2A202D0A5D802D09EB6D1D8E552D9
:1036D000E5CFEAFFE5CFE9FFE5CFDAFFE550E5CF3B
:1036E000E0FFE5CFD8FF1000E66A010EE66E050E9A
:1036F000E66E0FEC2FF0E552E552E5521200070E90
:10370000B46E000E886E876E866E856E846E836ED4
:10371000826E816E806E916E906E8F6E8E6E8D6EEB
:103720008C6E8B6E8A6E896E2F0E926E93689C0ED5
:10373000946E956A966A9768040E986E0E0E9A6E4D
:103740009968C16AF19EB0989C8EA26A9F6AA06A2D
:103750009D6AA36AA56AC8DF9F86D08E9E969D86C5
:103760009382F06AF288F09EF098F192F09AF16AF2
:10377000F28CF28E1200D9CFE6FFE1CFD9FFE652EC
:10378000BEDF0201409740990201040EAB6F020EAA
:10379000AC6FDF6A100EDF5C0AE2DF50EA6AAB252D
:1037A000E96EAC51EA227F0EEF6EDF2AF3D70201F9
:1037B0001D6B010E1E6FC20E1F6F020140850201BC
:1037C000226B236B0201006B026B036B010ED56E43
:1037D000320ED76ECF0ED66ED59E000EE66E020E5E
:1037E000E66E8BD8E552E55202014093000EE66E7C
:1037F000020EE66E82D8E552E55202014093E55290
:10380000E552E7CFD9FF1200828280889492929885
:103810001200F2920201200EA76F9F86020140A9BA
:1038200006D00201E00EA46F000EA56F05D00201C4
:10383000C00EA46F000EA56F020140A1407940A701
:1038400006D00201800EA26F000EA36F05D0020108
:10385000A00EA26F000EA36FC9CFA8F2A2C2E9FF0B
:10386000A3C2EAFFA22B000EA323EF50C96E1200E1
:103870009E96C9CFA8F20201A751000823E2A4C274
:10388000E9FFA5C2EAFFA42B000EA523A8C2EFFF03
:10389000A2C2E9FFA3C2EAFFA22BA323EFCFA8F2A3
:1038A000A8C2C9FFA707A7510CE10201020E1E6FB3
:1038B000020140934081320ED76ECF0ED66EF29445
:1038C000D58E01D0C96A1200D9CFE6FFE1CFD9FF6A
:1038D000020140A10ED0FD0EDBCFE6FFFE0EDBCFD6
:1038E000E6FFF1EC27F0E552E5529D96020140918A
:1038F0009D86E552E7CFD9FF1200D9CFE6FFE1CF91
:10390000D9FF020140B332D0FD0EDBCFE9FFFE0E3E
:10391000DBCFEAFF1E0EE926000EEA22EF50020876
:1039200009E1FD0EDBCFE6FFFE0EDBCFE6FF69D837
:10393000E552E552FD0EDBCFE9FFFE0EDBCFEAFFDD
:10394000150EE926000EEA22EF9EFD0EDBCFE6FF04
:10395000FE0EDBCFE6FF5FEC27F0E552E5529D96C9
:103960000201407740839D8602011D2BE552E7CF7F
:10397000D9FF12009D96020140919D861200D9CF79
:10398000E6FFE1CFD9FF0001166BD950FD0FE96EBC
:10399000FF0EDA20EA6E010EEE1801E1ED5002E1B1
:1039A000168101D0BA6AD950FB0FE96EFF0EDA20FA
:1039B000EA6E010EEE1801E1ED5002E1168301D02E
:1039C000B76AD950F90FE96EFF0EDA20EA6E010EE0
:1039D000EE1801E1ED5002E1168501D0736AD9506D
:1039E000F70FE96EFF0EDA20EA6E010EEE1801E124
:1039F000ED5002E1168701D0706AE552E7CFD9FF9A
:103A00001200D9CFE6FFE1CFD9FFFD0EDBCFE9FFF2
:103A1000FE0EDBCFEAFF1C0EE926000EEA22EF6A5B
:103A2000FD0EDBCFE9FFFE0EDBCFEAFF170EE92626
:103A3000000EEA22EF6AC6AE0ED0C69EFD0EDBCFA8
:103A4000E9FFFE0EDBCFEAFF170EE926000EEA22A1
:103A5000010EEF6E22D0F150800B10E0F250080BF7
:103A60000DE0FD0EDBCFE9FFFE0EDBCFEAFF170E08
:103A7000E926000EEA22020EEF6E0FD0F0A60DD05E
:103A8000909EFD0EDBCFE9FFFE0EDBCFEAFF170EA7
:103A9000E926000EEA22030EEF6E250EC614250855
:103AA00019E0FD0EDBCFE9FFFE0EDBCFEAFF1C0EB7
:103AB000E926000EEA22010EEF6EFD0EDBCFE9FFD4
:103AC000FE0EDBCFEAFF170EE926000EEA22C6CF74
:103AD000EFFF80D1C55019E0FD0EDBCFE9FFFE0EF0
:103AE000DBCFEAFF1C0EE926000EEA22020EEF6E83
:103AF000FD0EDBCFE9FFFE0EDBCFEAFF170EE92656
:103B0000000EEA22C5CFEFFF65D1D0BE19D0FD0E61
:103B1000DBCFE9FFFE0EDBCFEAFF1C0EE926000E2D
:103B2000EA22030EEF6EFD0EDBCFE9FFFE0EDBCFC8
:103B3000EAFF170EE926000EEA22D0CFEFFF4AD1A6
:103B40009DB619D0FD0EDBCFE9FFFE0EDBCFEAFFFD
:103B50001C0EE926000EEA22040EEF6EFD0EDBCFEE
:103B6000E9FFFE0EDBCFEAFF170EE926000EEA2280
:103B70009DCFEFFF2FD19C5019E0FD0EDBCFE9FF69
:103B8000FE0EDBCFEAFF1C0EE926000EEA22050E30
:103B9000EF6EFD0EDBCFE9FFFE0EDBCFEAFF170E67
:103BA000E926000EEA229CCFEFFF14D1080E9F5C9D
:103BB00019E0FD0EDBCFE9FFFE0EDBCFEAFF1C0EA6
:103BC000E926000EEA22060EEF6EFD0EDBCFE9FFBE
:103BD000FE0EDBCFEAFF170EE926000EEA229FCF8A
:103BE000EFFFF8D0A25019E0FD0EDBCFE9FFFE0E8B
:103BF000DBCFEAFF1C0EE926000EEA22070EEF6E6D
:103C0000FD0EDBCFE9FFFE0EDBCFEAFF170EE92644
:103C1000000EEA22A2CFEFFFDDD0A55019E0FD0E85
:103C2000DBCFE9FFFE0EDBCFEAFF1C0EE926000E1C
:103C3000EA22080EEF6EFD0EDBCFE9FFFE0EDBCFB2
:103C4000EAFF170EE926000EEA22A5CFEFFFC2D049
:103C5000100EF214100819E0FD0EDBCFE9FFFE0E86
:103C6000DBCFEAFF1C0EE926000EEA22090EEF6EFA
:103C7000FD0EDBCFE9FFFE0EDBCFEAFF170EE926D4
:103C8000000EEA22F2CFEFFFA5D0470EF11419E0A3
:103C9000FD0EDBCFE9FFFE0EDBCFEAFF1C0EE926AF
:103CA000000EEA220A0EEF6EFD0EDBCFE9FFFE0EDC
:103CB000DBCFEAFF170EE926000EEA22F1CFEFFF75
:103CC00089D0C00EF01419E0FD0EDBCFE9FFFE0E27
:103CD000DBCFEAFF1C0EE926000EEA220B0EEF6E88
:103CE000FD0EDBCFE9FFFE0EDBCFEAFF170EE92664
:103CF000000EEA22F0CFEFFF6DD092A819D0FD0E92
:103D0000DBCFE9FFFE0EDBCFEAFF1C0EE926000E3B
:103D1000EA220C0EEF6EFD0EDBCFE9FFFE0EDBCFCD
:103D2000EAFF170EE926000EEA2292CFEFFF52D0EB
:103D300093B019D0FD0EDBCFE9FFFE0EDBCFEAFF1B
:103D40001C0EE926000EEA220D0EEF6EFD0EDBCFF3
:103D5000E9FFFE0EDBCFEAFF170EE926000EEA228E
:103D600093CFEFFF37D03E0E94141C0819E0FD0EE0
:103D7000DBCFE9FFFE0EDBCFEAFF1C0EE926000ECB
:103D8000EA220E0EEF6EFD0EDBCFE9FFFE0EDBCF5B
:103D9000EAFF170EE926000EEA2294CFEFFF1AD0B1
:103DA00097BE18D0FD0EDBCFE9FFFE0EDBCFEAFF9A
:103DB0001C0EE926000EEA220F0EEF6EFD0EDBCF81
:103DC000E9FFFE0EDBCFEAFF170EE926000EEA221E
:0C3DD00097CFEFFFE552E7CFD9FF1200BC
:043DDC00D9CFE6FF56
:103DE000E1CFD9FFF29CFD0EDBCFE9FFFE0EDBCF6A
:103DF000EAFFEE52EF6AFD0EDBCFE9FFFE0EDBCFEE
:103E0000EAFF540EE926000EEA22EF6AF28CE55230
:103E1000E7CFD9FF1200D9CFE6FFE1CFD9FFE652B5
:103E20000101AE0E5D6F0F0E5E6FAD0E5F6F0F0E78
:103E3000606F010E086F080EE66E010EE66ECEDFB3
:103E4000E552E55201016E0EB66F0F0EB76F6D0EA3
:103E5000B86F0F0EB96F020E616F610EE66E010E44
:103E6000E66EBCDFE552E552150EE66E7C0EE66EA0
:103E700074EC2FF0E552E5529F989F9A949C948E93
:103E8000AE50DF6EAE50DF6E9E9A150EE66E7C0E63
:103E9000E66E42EC2FF0E552E552A59AA59898926D
:103EA00098846E50DF6E6E50DF6EA49A0101BA6B7B
:103EB000E552E552E7CFD9FF1200D9CFE6FFE1CFB7
:103EC000D9FFFD0EDBCFE9FFFE0EDBCFEAFFEF04EB
:103ED00002E19D8801D0A388E552E7CFD9FF120007
:103EE000D9CFE6FFE1CFD9FFD950FD0FE96EFF0E24
:103EF000DA20EA6EEE50ED100AE19EA807D0080E17
:103F0000E66E010EE66ED9DFE552E55209D0A4A8AF
:103F100007D0610EE66E010EE66ECFDFE552E55288
:103F2000E552E7CFD9FF1200D9CFE6FFE1CFD9FFA5
:103F3000D950FD0FE96EFF0EDA20EA6EEE50ED105B
:103F400005E1ABB2AB98AB889D8A04D06BB26B989D
:103F50006B88A38AE552E7CFD9FF1200D9CFE6FFDD
:103F6000E1CFD9FFFD0EDBCFE9FFFE0EDBCFEAFF8D
:103F7000EF0403E19E989D9802D0A498A398E5527F
:103F8000E7CFD9FF1200D9CFE6FFE1CFD9FFFD0E71
:103F9000DBCFE9FFFE0EDBCFEAFFEE52EF500AE186
:103FA000FD0EDBCFE6FFFE0EDBCFE6FFD7DFE552EF
:103FB000E5522FD0FD0EDBCFE9FFFE0EDBCFEAFF8F
:103FC000020EE926000EEA22EECFF3FFEDCFF4FF5A
:103FD000EE2AEF22F3CFE9FFF4CFEAFFEF50E66ECF
:103FE000FD0EDBCFE9FFFE0EDBCFEAFF570EE92621
:103FF000000EEA22EE50EFCFEAFFE96EE552E750FD
:10400000EF6EFD0EDBCFE9FFFE0EDBCFEAFFEE52D7
:10401000EF06E552E7CFD9FF1200D9CFE6FFE1CF97
:10402000D9FFE65201010651060A4FE0030A41E0BA
:10403000010A37E0070A2DE0010A1EE0030A0CE03E
:10404000010A02E0066B4FD0066BFE0EDB50C9087A
:1040500002E1010E066F47D0066B079BFE0EDB5098
:10406000170802E1079D05D0FE0EDB50180801E19C
:10407000078D020E066F37D0FE0EDBCF02F1DBCFCD
:1040800018F20251800B01E0010EBA6F030E066FA9
:104090002AD0FE0EDBCF03F1DBCF19F2040E066F40
:1040A00022D0FE0EDBCF04F1DBCF1AF2050E066F35
:1040B0001AD0FE0EDBCF05F1DBCF1BF207AD03D02C
:1040C000060E066F01D0066B0ED0025103250425A3
:1040D0000525DF6EDF1CF36EFE0EDB50F35C01E1A5
:1040E000078B066B00D0E552E552E7CFD9FF1200EF
:1040F0009EAA0AD09E9A5DC1E9FF5EC1EAFFEF5019
:10410000E66E8BDFE5521FD09EA807D0080EE66E44
:10411000010EE66E38DFE552E552A4AA0BD0A49A50
:10412000B6C1E9FFB7C1EAFFEF50E66E07EC10F049
:10413000E55209D0A4A807D0610EE66E010EE66E26
:1041400022DFE552E55212000BEF1FF0D9CFE6FF58
:10415000E1CFD9FF590E1D6E1E6AFD0EDBCF22F096
:10416000FE0EDBCF23F0ADEC2CF01BC0C7F11CC062
:10417000C8F1080E0101C727010EC823F29CC7C170
:10418000E9FFC8C1EAFF020EE926000EEA22FB0E93
:10419000DBCFEEFFFC0EDBCFEDFFC7C1E9FFC8C1EF
:1041A000EAFFEE52F90EDBCFEFFFF28CFD0EDBCF14
:1041B000E6FFFE0EDBCFE6FF93DEE552E552E55269
:1041C000E7CFD9FF1200D9CFE6FFE1CFD9FFFD0E2F
:1041D000DBCFE9FFFE0EDBCFEAFF590EEA02F3CF99
:1041E000EAFFE902F3CFE9FFF450EA26080EE926D8
:1041F000010EEA22EE52EF50000801E2E8D7F80E75
:10420000DBCF2BF0F90EDBCF2CF02C3404E22B505B
:104210005008000E2C5407E2500EF36EF80EF3CF48
:10422000DBFFF90EDB6AFA0EDBCFE6FFFB0EDBCF1E
:10423000E6FFFC0EDBCFE6FFBB0EE66E010EE66E80
:1042400084EC2DF0F56E050EE15EF550F80EDBCF37
:10425000E6FFF90EDBCFE6FFBB0EE66E010EE66E63
:10426000FD0EDBCFE6FFFE0EDBCFE6FF6FDFF56E68
:10427000060EE15EF550000E00D0E552E7CFD9FF03
:104280001200D9CFE6FFE1CFD9FF590E1D6E1E6A8D
:10429000FD0EDBCF22F0FE0EDBCF23F0ADEC2CF0D9
:1042A0001BC0C9F11CC0CAF1080E0101C927010ECB
:1042B000CA23C9C1E9FFCAC1EAFF570EE926000EA9
:1042C000EA22EE50EFCFEAFFE96EFB0EDBCFEFFF05
:1042D000D950FD0FE96EFF0EDA20EA6EEE50ED10B8
:1042E00003E19EA8FED702D0A4A8FED7E552E7CFEF
:1042F000D9FF1200D9CFE6FFE1CFD9FF0101095163
:10430000000801E2FBD75C515C2BEA6A0C0FE96EF6
:10431000010EEA22FE0EDBCFEFFFDB500D0803E0BB
:10432000500E5C5D0FE3F29C0C0E0A6F010E0B6FDA
:104330005CC109F1F28C5C6B000EE66EE66AD0DDC2
:10434000E552E552E552E7CFD9FF1200010107AD72
:1043500002D0010E02D0000E00D01200D9CFE6FF2D
:10436000E1CFD9FF020EE126010EDB6A010107ADA4
:1043700004D007BB02D0DB5068D0090EF36EFE0EEE
:10438000DBCFF4FFF350F45C13E2FE0EDB042B6E84
:10439000010E2B5204E0E846FE0B2B06FCE1DF6E1B
:1043A000DF5001010515E76E010EE7CFDBFF4BD0B3
:1043B000110EF36EFE0EDBCFF4FFF350F45C14E24B
:1043C000FE0EDB50F70F2B6E010E2B5204E0E84679
:1043D000FE0B2B06FCE1DF6EDF5001010415E76EDA
:1043E000010EE7CFDBFF2FD0190EF36EFE0EDBCFF1
:1043F000F4FFF350F45C14E2FE0EDB50EF0F2B6E73
:10440000010E2B5204E0E846FE0B2B06FCE1DF6EAA
:10441000DF5001010315E76E010EE7CFDBFF13D07C
:10442000FE0EDB50E70F2B6E010E2B5204E0E84628
:10443000FE0B2B06FCE1DF6EDF5001010215E76E7B
:10444000010EE7CFDBFFDB5000D0D9CFE1FFE55213
:06445000E7CFD9FF1200C6
:0A445600D9CFE6FFE1CFD9FFFD0E3C
:10446000DBCFE9FFFE0EDBCFEAFFFB0EDBCFEEFF7B
:10447000FC0EDBCFEDFFFD0EDBCFE9FFFE0EDBCF49
:10448000EAFF020EE926000EEA22F90EDBCFEEFF6C
:10449000FA0EDBCFEDFFFD0EDBCFE9FFFE0EDBCF2B
:1044A000EAFF040EE926000EEA22F70EDBCFEEFF4C
:1044B000F80EDBCFEDFFFD0EDBCFE9FFFE0EDBCF0D
:1044C000EAFF0A0EE926000EEA22F50EDBCFEEFF28
:1044D000F60EDBCFEDFFFD0EDBCFE9FFFE0EDBCFEF
:1044E000EAFF060EEB6A070EEB6AFD0EDBCFE9FF73
:1044F000FE0EDBCFEAFF080EEB6A090EEB6AFD0E3B
:10450000DBCFE9FFFE0EDBCFEAFF0E0EE926000E41
:10451000EA22EF6AFD0EDBCFE9FFFE0EDBCFEAFFFA
:104520000C0EE926000EEA22F30EDBCFEEFFF40EAE
:10453000DBCFEDFFE552E7CFD9FF1200D9CFE6FF81
:10454000E1CFD9FFFD0EDBCFE9FFFE0EDBCFEAFFA7
:10455000FB0EDBCFEEFFFC0EDBCFEDFFE552E7CF2E
:10456000D9FF1200D9CFE6FFE1CFD9FFFD0EDBCF97
:10457000E9FFFE0EDBCFEAFF0E0EE926000EEA226F
:10458000EF5000D0E552E7CFD9FF1200D9CFE6FFB8
:10459000E1CFD9FFFB0EDBCFE6FFFC0EDBCFE6FF62
:1045A000FD0EDBCFE6FFFE0EDBCFE6FF19D8E552AE
:1045B000E552E552E552F3CF2BF0F4CF2CF04F0E3D
:1045C0002B26080E2C222BC0E6FF2CC0E6FF1DEC8C
:1045D00017F0E552E55200D0E552E7CFD9FF1200BF
:1045E000D9CFE6FFE1CFD9FF080EE126FD0EDBCFE4
:1045F000E9FFFE0EDBCFEAFFEECF2FF0EFCF30F07A
:10460000316A326A30AE02D031683268FB0EDBCFDD
:104610002BF0FC0EDBCF2CF02D6A2E6A2CAE02D0D4
:104620002D682E682BC01BF02CC01CF02DC01DF077
:104630002EC01EF02FC020F030C021F031C022F07B
:1046400032C023F0A3EC2EF017C01BF018C01CF0F2
:1046500019C01DF01AC01EF0640E206E216A226A75
:10466000236A79EC2CF01BC0DEFF1CC0DDFFFD0EC1
:10467000DBCFE9FFFE0EDBCFEAFF020EE926000EDC
:10468000EA22EECF2FF0EFCF30F0316A326A30AE4F
:1046900002D031683268FD0EDBCFE9FFFE0EDBCFC2
:1046A000EAFF080EE926000EEA22EECF2BF0EFCF4C
:1046B0002CF02D6A2E6A2CAE02D02D682E682BC0ED
:1046C0001BF02CC01CF02DC01DF02EC01EF02FC002
:1046D00020F030C021F031C022F032C023F0A3EC32
:1046E0002EF017C01BF018C01CF019C01DF01AC026
:1046F0001EF0E80E206E030E216E226A236A79EC0A
:104700002CF0020E1BC0DBFF030E1CC0DBFFFD0EF6
:10471000DBCFE9FFFE0EDBCFEAFF040EE926000E39
:10472000EA22EECF31F0EFCF32F0336A346A32AEA4
:1047300002D033683468FD0EDBCFE9FFFE0EDBCF1D
:10474000EAFF060EE926000EEA22EECF2FF0EFCFA9
:1047500030F0FB0EDB502F5C2B6EFC0EDB50305824
:104760002C6E2D6A2E6A2CAE02D02D682E682BC0BE
:104770001BF02CC01CF02DC01DF02EC01EF031C04F
:1047800020F032C021F033C022F034C023F0A3EC7B
:104790002EF017C01BF018C01CF019C01DF01AC075
:1047A0001EF00A0E206E216A226A236A79EC2CF030
:1047B000040E1BC0DBFF050E1CC0DBFFFD0EDBCFB4
:1047C000E9FFFE0EDBCFEAFF060EE926000EEA2225
:1047D000EECF2DF0EFCF2EF0FB0EDB502D5C2B6ECD
:1047E000FC0EDB502E582C6E060E2BC0DBFF070E86
:1047F0002CC0DBFFFD0EDBCFE9FFFE0EDBCFEAFFB7
:10480000060EE926000EEA22FB0EDBCFEEFFFC0EC1
:10481000DBCFEDFFFB0EDBCF2BF0FC0EDBCF2CF064
:10482000FD0EDBCFE9FFFE0EDBCFEAFF080EE92627
:10483000000EEA222B50EE262C50ED22FD0EDBCF8F
:10484000E9FFFE0EDBCFEAFF080EE926000EEA22A2
:10485000EECF2BF0EFCF2CF0FD0EDBCFE9FFFE0EFD
:10486000DBCFEAFF0A0EE926000EEA22EECF2DF09A
:10487000EFCF2EF02E502C18E8AE02D02C3404D0FE
:104880002B502D5C2C502E581DE2FD0EDBCFE9FF86
:10489000FE0EDBCFEAFF0A0EE926000EEA22EECF7B
:1048A0002BF0EFCF2CF0FD0EDBCFE9FFFE0EDBCFC0
:1048B000EAFF080EE926000EEA222BC0EEFF2CC00C
:1048C000EDFF49D0FD0EDBCFE9FFFE0EDBCFEAFFA7
:1048D000080EE926000EEA22EECF2BF0EFCF2CF0E7
:1048E000FD0EDBCFE9FFFE0EDBCFEAFF0A0EE92665
:1048F000000EEA22EECF2DF0EFCF2EF02D6C2E1E03
:104900002E222C502E18E8AE02D02E3404D02D507A
:104910002B5C2E502C581FE2FD0EDBCFE9FFFE0E64
:10492000DBCFEAFF0A0EE926000EEA22EECF2BF0DB
:10493000EFCF2CF02B6C2C1E2C22FD0EDBCFE9FFD1
:10494000FE0EDBCFEAFF080EE926000EEA222BC09E
:10495000EEFF2CC0EDFFFB0EDBCF2BF0FC0EDBCF10
:104960002CF0FD0EDBCFE9FFFE0EDBCFEAFF0C0ED5
:10497000E926000EEA22EECF2DF0EFCF2EF02E50DA
:104980002C18E8AE02D02C3404D02B502D5C2C50C7
:104990002E5844E3FB0EDBCF2FF0FC0EDBCF30F0C4
:1049A000FD0EDBCFE9FFFE0EDBCFEAFF0C0EE926A2
:1049B000000EEA22EECF31F0EFCF32F0316C321E32
:1049C000322230503218E8AE02D0323404D03150A6
:1049D0002F5C3250305822E3D950060FE96EDACFFF
:1049E000EAFFEE50ED100DE1FD0EDBCFE9FFFE0E0C
:1049F000DBCFEAFF0E0EE926000EEA22010EEF6E73
:104A00000CD0FD0EDBCFE9FFFE0EDBCFEAFF0E0E72
:104A1000E926000EEA22020EEF6E0BD0FD0EDBCF70
:104A2000E9FFFE0EDBCFEAFF0E0EE926000EEA22BA
:104A3000EF6A020EDBCF2FF0030EDBCF30F0DE503B
:104A40002F242D6EDD5030202E6E040EDB502D5C99
:104A50002B6E050EDB502E582C6E2BC0F3FF2CC096
:104A6000F4FF00D0D9CFE1FFE552E7CFD9FF120024
:104A7000D9CFE6FFE1CFD9FFE652C80E0201666F3B
:104A8000676B030E6A6F010E6B6F040E686F696BC4
:104A9000DF6A6A51DF5C10E2DF50040DF3CFE9FFFB
:104AA000F4CFEAFF6C0EE926020EEA22EE6AEE6A05
:104AB000EE6AEE6ADF2AEDD77E6B7F6B806B010EAC
:104AC000C26EC16A860EC06E9F9C9E9C9D8C66C203
:104AD000E6FF67C2E6FF14D8E552E552E552E5521B
:104AE000E7CFD9FF1200D9CFE6FFE1CFD9FFE652D9
:104AF0005FD89D9CC26AE552E552E7CFD9FF12000C
:104B0000D9CFE6FFE1CFD9FFFD0EDBCF1DF0FE0EC2
:104B1000DBCF1EF01D5002E1190E1E183BE0800E87
:104B20001D1802E10C0E1E1830E0400E1D1802E1A7
:104B3000060E1E1825E0200E1D1802E1030E1E1899
:104B40001AE0900E1D1802E1010E1E180FE0C80EAB
:104B50001D1801E11E5005E06A0ECA6EDD0ECB6E17
:104B60001ED06A0ECA6EDD0ECB6E19D0520ECA6E02
:104B70008C0ECB6E14D0520ECA6E450ECB6E0FD07B
:104B8000510ECA6E8C0ECB6E0AD0510ECA6E450EF7
:104B9000CB6E05D0500ECA6E8C0ECB6E00D0CC6A98
:104BA0009F929E929D82CA84E552E7CFD9FF120060
:104BB0009D92CA941200D9CFE6FFE1CFD9FF020E31
:104BC000E126FE0EDBCF2BF002016A51D8802B5478
:104BD00012E39D9CFE0EDB04E96EEA6AD890E9368A
:104BE000EA36780EE926020EEA22EECFDEFFEDCF9E
:104BF000DDFF9D8C02D0DE6ADD6ADECF2BF0DDCFDB
:104C00002CF02BC0F3FF2CC0F4FF00D0D9CFE1FF74
:104C1000E552E7CFD9FF1200D9CFE6FFE1CFD9FFA8
:104C2000FD0EDBCF2BF0FE0EDBCF2CF02D6A2E6AB3
:104C3000880E206E130E216E226A236A2BC01BF091
:104C40002CC01CF02DC01DF02EC01EF0A3EC2EF0C9
:104C500017C02BF018C02CF019C02DF01AC02EF080
:104C6000206A080E216E226A236A2BC01BF02CC01A
:104C70001CF02DC01DF02EC01EF079EC2CF01BC0D6
:104C80002BF01CC02CF01DC02DF01EC02EF02BC030
:104C9000F3FF2CC0F4FF00D0E552E7CFD9FF12009C
:104CA000D9CFE6FFE1CFD9FFE6529D9CCAC2DFFF14
:104CB0009D8CDF5000D0E552E552E7CFD9FF1200BE
:104CC0009D9C0201CA6B9D8C1200C2821200D9CF3A
:104CD000E6FFE1CFD9FF050EE126C450DE6EDD6AA6
:104CE000D9CFE9FFDACFEAFFEE50ED6EEF6AC3509D
:104CF000DE26000EDD22DECF2BF0DDCF2CF02D6A7C
:104D00002E6A02018051040DF3CFE9FFF4CFEAFFD0
:104D10006C0EE926020EEA222B50EE262C50EE22D3
:104D20002D50EE222E50EE22802B6A51805D04E33E
:104D3000806B7E2B000E7F23020E80C2DBFFDB50D8
:104D4000040D020EF3CFDBFFDB80DB50C26E685137
:104D50007E5D69517F5901E283D0030EDB6A040E48
:104D6000DB6A030EDBCF2BF0040EDBCF2CF002014D
:104D70006A5100012CAE02D0D89003D02B5C000EFB
:104D80002C583AE2030EDBCFE9FF040EDBCFEAFF3B
:104D9000D890E936EA36D890E936EA366C0EE9263C
:104DA000020EEA2202016B511F0BEECF2BF0EECF69
:104DB0002CF0EECF2DF0EECF2EF007E0D8902E3273
:104DC0002D322C322B32E806F9E1030EDBCFE9FF5E
:104DD000040EDBCFEAFFD890E936EA36780EE926F2
:104DE000020EEA222BC0EEFF2CC0EDFF030EDB2AE1
:104DF000040E01E3DB2AB5D7030EDB6A040EDB6A7F
:104E0000030EDBCF2BF0040EDBCF2CF002016A5136
:104E100000012CAE02D0D89003D02B5C000E2C5891
:104E20001AE2030EDBCFE9FF040EDBCFEAFFD890D6
:104E3000E936EA36D890E936EA366C0EE926020EF3
:104E4000EA22EE6AEE6AEE6AEE6A030EDB2A040ECE
:104E500001E3DB2AD5D70201CA2B02017E6B7F6BEF
:0C4E6000D9CFE1FFE552E7CFD9FF1200E7
:044E6C00000EE96EDD
:104E7000EA6E040043EC27F0EA2A080EEA5CD8A4A4
:104E800039EF27F01200EF6AE93E43EF27F01200F6
:104E9000FF0EE3CF09F009380F0B060FD8B2070F4A
:104EA0002A0FAD6E64EC2BF009500F0B060FD8B231
:104EB000070F2A0FAD6E64EC2BF0000C1200EACF46
:104EC00004F0E9CF05F0FF0EE3CFEAFFFE0EE3CFDB
:104ED000E9FF40A741D0EECFA0F0EECFA1F0EECF9A
:104EE000A2F0EECFA3F0EECFA4F0EECFA5F0EECF80
:104EF000A6F0EECFA7F0EECFA8F0EECFA9F0EECF60
:104F0000AAF0EECFABF0EECFACF0EECFADF0EECF3F
:104F1000AEF0EECFAFF0EECFB0F0EECFB1F0EECF1F
:104F2000B2F0EECFB3F0EECFB4F0EECFB5F0EECFFF
:104F3000B6F0EECFB7F0EECFB8F0EECFB9F0EECFDF
:104F4000BAF0EECFBBF0EECFBCF0EECFBDF0EECFBF
:104F5000BEF0EECFBFF040D0EECF80F0EECF81F0CC
:104F6000EECF82F0EECF83F0EECF84F0EECF85F07F
:104F7000EECF86F0EECF87F0EECF88F0EECF89F05F
:104F8000EECF8AF0EECF8BF0EECF8CF0EECF8DF03F
:104F9000EECF8EF0EECF8FF0EECF90F0EECF91F01F
:104FA000EECF92F0EECF93F0EECF94F0EECF95F0FF
:104FB000EECF96F0EECF97F0EECF98F0EECF99F0DF
:104FC000EECF9AF0EECF9BF0EECF9CF0EECF9DF0BF
:104FD000EECF9EF0EECF9FF004C0EAFF05C0E9FFE0
:104FE000120040A11200EACF04F0E9CF05F0FF0E55
:104FF000E3CFEAFFFE0EE3CFE9FF40A941D0C0C0F6
:10500000EEFFC1C0EEFFC2C0EEFFC3C0EEFFC4C0E2
:10501000EEFFC5C0EEFFC6C0EEFFC7C0EEFFC8C0C2
:10502000EEFFC9C0EEFFCAC0EEFFCBC0EEFFCCC0A2
:10503000EEFFCDC0EEFFCEC0EEFFCFC0EEFFD0C082
:10504000EEFFD1C0EEFFD2C0EEFFD3C0EEFFD4C062
:10505000EEFFD5C0EEFFD6C0EEFFD7C0EEFFD8C042
:10506000EEFFD9C0EEFFDAC0EEFFDBC0EEFFDCC022
:10507000EEFFDDC0EEFFDEC0EEFFDFC0EEFF40D092
:10508000E0C0EEFFE1C0EEFFE2C0EEFFE3C0EEFFE6
:10509000E4C0EEFFE5C0EEFFE6C0EEFFE7C0EEFFC6
:1050A000E8C0EEFFE9C0EEFFEAC0EEFFEBC0EEFFA6
:1050B000ECC0EEFFEDC0EEFFEEC0EEFFEFC0EEFF86
:1050C000F0C0EEFFF1C0EEFFF2C0EEFFF3C0EEFF66
:1050D000F4C0EEFFF5C0EEFFF6C0EEFFF7C0EEFF46
:1050E000F8C0EEFFF9C0EEFFFAC0EEFFFBC0EEFF26
:1050F000FCC0EEFFFDC0EEFFFEC0EEFFFFC0EEFF06
:1051000004C0EAFF05C0E9FF1200F2B41200165015
:105110000F0AD8B41200FF0EE3CF0AF0FE0EE3CF61
:105120000BF0FD0EE3CF0CF0FC0EE3CF0DF00A2ADE
:1051300016A08D8E0B2A16A28F800C2A16A48F869D
:105140000D2A16A68F880E6A0F6A106A116AD8ECAB
:1051500028F00A2EAEEF28F016A08D9E0B2EB3EF8E
:1051600028F016A28F900C2EB8EF28F016A48F9678
:1051700000000D2EBEEF28F016A68F9800000E2E10
:10518000C3EF28F0129000000F2EC8EF28F0129203
:105190000000102ECDEF28F012940000112ED2EF57
:1051A00028F01296FAEC28F0133EA9EF28F012002E
:1051B000D70E136E0000000000000000F0EC28F095
:1051C000132EDAEF28F0D70E136E00000000000057
:1051D0000000F0EC28F0132EE5EF28F0000012009C
:1051E0000000F3EF28F000000000000000000000C5
:1051F00000001200030E146E0000142EFCEF28F0C5
:0252000012009A
:0E5202000201956B966B976B986B9F6B120079
:1052100093C21BF094C21CF01D6A1E6A1CAE02D021
:105220001D681E68200E206E030E216E226A236AFE
:10523000A3EC2EF017C01BF018C01CF019C01DF015
:105240001AC01EF0050E206E216A226A236AA3ECA2
:105250002EF017C01BF018C01CF019C01DF01AC0AA
:105260001EF0206A080E216E226A236A79EC2CF067
:105270001BC02BF01CC02CF0E80E2C02F3CF2CF03E
:10528000030E2B02F3502C26E80E2B02F3CF2BF04B
:10529000F4502C26E80E226E030E236E2BC01DF058
:1052A0002CC01EF053EC2CF01DC02BF01EC02CF0B7
:1052B0002BC0F3FF2CC0F4FF00D0120095C21BF0EE
:1052C00096C21CF097C21DF098C21EF0200E206EF0
:1052D000030E216E226A236AA3EC2EF017C01BF086
:1052E00018C01CF019C01DF01AC01EF0050E206E6B
:1052F000216A226A236AA3EC2EF017C01BF018C0A3
:105300001CF019C01DF01AC01EF0550E206E850E3F
:10531000216E226A236A79EC2CF0E80E206E030ECF
:10532000216E226A236AA3EC2EF017C01BF018C06E
:105330001CF019C01DF01AC01EF0E80E206E030EFE
:10534000216E226A236A79EC2CF000D0120002014F
:105350009F5108E1996B9A6B9B6B9C6B9D6B9E6B4D
:10536000010E9F6F120002019F051EE19DC22BF0EE
:105370009EC22CF02D6A2E6A99C21BF09AC21CF0B4
:105380009BC21DF09CC21EF02BC020F02CC021F04F
:105390002DC022F02EC023F0D4EC2FF01BC091F2D0
:1053A0001CC092F202019F6B120091C2F3FF92C2E5
:1053B000F4FF00D01200D9CFE6FFE1CFD9FFFD0EF8
:1053C000DBCF91F2FE0EDBCF92F2E552E7CFD9FFB1
:1053D00012000201956B966B976B986B1200D9CFF8
:1053E000E6FFE1CFD9FFFB0EDBCF95F2FC0EDBCF62
:1053F00096F2FD0EDBCF97F2FE0EDBCF98F2E55270
:10540000E7CFD9FF1200D9CFE6FFE1CFD9FF020ED7
:10541000E12602019F0517E1010EE66EDBEC25F0A7
:10542000E552F3CF2BF0F4CF2CF000012B5002010A
:10543000992700012C5002019A23000E9B239C23E4
:105440009D2B9E2340D0010EE66EDBEC25F0E5524D
:1054500002019151F35C2B6E9251F4582C6E2BC0CB
:10546000DEFF2CC0DDFFDECF2BF0DDCF2CF0D880AF
:105470002C5004E7F00E2B5CFF0E2C580BE3DECF14
:105480002DF0DDCF2EF02E3404E22D501008000E4A
:105490002E5417E2DECF93F2DDCF94F2DECF2BF065
:1054A000DDCF2CF02D6A2E6A2CAE02D02D682E682E
:1054B0002B5095272C5096232D5097232E50982310
:1054C00002D0936B946BD9CFE1FFE552E7CFD9FFC0
:0254D0001200C8
:0E54D2009384F09EF188F092F0889386F19218
:1054E000F186F094F08A9388938A938C938EF1904E
:1054F00081CFB9F2F290F2861200D9CFE6FFE1CF68
:10550000D9FF040EE126F098ADC2DFFF010EAEC256
:10551000DBFF020EAFC2DBFF030EB0C2DBFFF08881
:10552000DECF1BF0DECF1CF0DECF1DF0DDCF1EF096
:10553000DD52DD5200D0D9CFE1FFE552E7CFD9FFF0
:105540001200D9CFE6FFE1CFD9FFF098FB0EDBCFF9
:10555000ADF2FC0EDBCFAEF2FD0EDBCFAFF2FE0EF6
:10556000DBCFB0F2F088E552E7CFD9FF120088B266
:1055700007D00201AD07000EAE5BAF5BB05B06D09B
:105580000201AD2B000EAE23AF23B0231200D9CF02
:10559000E6FFE1CFD9FF040EE126F09AB1C2DFFFAA
:1055A000010EB2C2DBFF020EB3C2DBFF030EB4C2B8
:1055B000DBFFF08ADECF1BF0DECF1CF0DECF1DF06C
:1055C000DDCF1EF0DD52DD5200D0D9CFE1FFE55234
:1055D000E7CFD9FF1200D9CFE6FFE1CFD9FFF09A8C
:1055E000FB0EDBCFB1F2FC0EDBCFB2F2FD0EDBCF58
:1055F000B3F2FE0EDBCFB4F2F08AE552E7CFD9FF6B
:10560000120088B407D00201B107000EB25BB35B91
:10561000B45B06D00201B12B000EB223B323B42336
:105620001200D9CFE6FFE1CFD9FF040EE126F296B2
:10563000B5C2DFFF010EB6C2DBFF020EB7C2DBFF51
:10564000030EB8C2DBFFF286DECF1BF0DECF1CF00C
:10565000DECF1DF0DDCF1EF0DD52DD5200D0D9CF00
:10566000E1FFE552E7CFD9FF1200F2960201B56BD8
:10567000B66BB76BB86BF2861200D9CFE6FFE1CFFD
:10568000D9FFFE0EDB0416E188B60AD00101FF0542
:1056900006E10201B507000EB65BB75BB85B09D047
:1056A0000101FF5106E10201B52B000EB623B7231D
:1056B000B82306D08850080B01E0010E0101FF6FEE
:0856C000E552E7CFD9FF12000B
:0856C8009EB802D0FDD7FCD70B
:1056D0001200D9CFE6FFE1CFD9FFFE0EDBCFE6FF08
:1056E00048EC27F0E5520D0EAD6EEEDFE552E7CF48
:1056F000D9FF1200D9CFE6FFE1CFD9FF0101D95080
:10570000FD0FFB6FFF0EDA20FC6F010EEA6AFB252E
:10571000E96EFC51EA22EF50E66E48EC27F0E552C4
:10572000FBC1E9FFFCC1EAFFEF50E66E48EC27F051
:10573000E5520D0EAD6EC8DFE552E7CFD9FF12007E
:10574000D9CFE6FFE1CFD9FF0101FD6B1A0EFD5D58
:1057500011E2FD0EDBCFE9FFDB2AFE0EDBCFEAFF15
:1057600001E3DB2AEF50E66E48EC27F0E552010139
:10577000FD2BECD70D0EAD6EA7DFE552E7CFD9FFBD
:1057800012000101200EFB6F020EFC6F020120517E
:105790000201C46FC56BC651C41902E1C751C519D6
:1057A00018E0020140A502D040950FD0C6C2E6FF26
:1057B00048EC27F0E552C4C2E6FF48EC27F0E5527A
:1057C0000D0EAD6E81DF02014095C4C2C6F2C5C2A6
:1057D000C7F20201C62B000EC723C73504E2C6512B
:1057E000FF08000EC75502E2C66BC76B1200150E0C
:1057F000E66E3C0EE66E74EC2FF0E552E552320E8A
:10580000E66E63EC30F0E5521200D9CFE6FFE1CF4F
:10581000D9FFFE0EDBCFFEF1E552E7CFD9FF120034
:10582000D9CFE6FFE1CFD9FF020EE1260F0EE66EDB
:10583000FE0EDB507F0BFE0BFD0BE66EF10EE66EEF
:10584000DBEC2EF0E552E552E5520A0EE66E81ECF5
:1058500030F0E55298EC30F007EC04F0000901E07C
:10586000FBD7F8EC2FF095EC30F0C4502D6E2DC026
:105870002EF02D6AC35000012D102B6E2EC02CF07F
:105880002BC0DEFF2CC0DDFFDECF2BF0DDCF2CF0F8
:105890002BC0F3FF2CC0F4FF00D0D9CFE1FFE552BD
:0658A000E7CFD9FF120062
:0A58A600256A23AE5CEF2CF0226CA3
:1058B000231EE86A2322251E1EAE64EF2CF01D6C09
:1058C0001E1EE86A1E22251E17EC30F01EBE74EF65
:1058D0002CF025AE000C1D6C1E1EE86A1E22196CF1
:1058E0001A1EE86A1A22000C25BE6BEF2CF02688DF
:1058F000FF0C256AE86A23AE86EF2CF0206C211E8F
:10590000221E231E212222222322251E1EAE91EFBB
:105910002CF01B6C1C1E1D1E1E1E1C221D221E2276
:10592000251ED4EC2FF01EBEA8EF2CF025AE000CE7
:105930001B6C1C1E1D1E1E1EE86A1C221D221E2220
:10594000176C181E191E1A1E182219221A22000C72
:1059500025BE98EF2CF02688FF0C1EC02AF01DC033
:1059600029F01D502202F4CF1CF0F3CF1BF01E5083
:105970002302F4CF1EF0F3CF1DF02202F3501C26B9
:10598000F4501D22E86A1E2229502302F3501C26DF
:10599000F4501D22E86A1E2223AED3EF2CF02950CA
:1059A0001D5E2A501E5A2AAE000C22501D5E235046
:0459B0001E5A000C6F
:0C59B4006464646464646363636362623F
:1059C0006261616160605F5F5E5D5D5C5B5B5A59F7
:1059D000585757565554535251504F4E4D4B4A49B4
:1059E000484745444342403F3E3C3B3938363534D6
:1059F00032302F2D2C2A2927252422211F1D1C1A45
:105A00001816151311100E0C0A090705030200FEE3
:105A1000FDFBF9F7F6F4F2F0EFEDEBEAE8E6E4E38C
:105A2000E1DFDEDCDBD9D7D6D4D3D1D0CECCCBCA24
:105A3000C8C7C5C4C2C1C0BEBDBCBBB9B8B7B6B586
:105A4000B3B2B1B0AFAEADACABAAA9A9A8A7A6A599
:105A5000A5A4A3A3A2A1A1A0A09F9F9F9E9E9E9D3F
:095A60009D9D9D9C9C9C9C9C9CBE
:065A6A001E0EF66E080E90
:105A7000F76E000EF86E02010900F550BF6F0900C5
:105A8000F550C06F03E1BF6701D03DD00900F5506C
:105A9000BA6F0900F550BB6F0900F550BC6F0900E3
:105AA0000900F550E96E0900F550EA6E0900090099
:105AB0000900F550BD6F0900F550BE6F09000900DF
:105AC000F6CFC1F2F7CFC2F2F8CFC3F2BAC2F6FFF7
:105AD000BBC2F7FFBCC2F8FF0201BD5302E1BE53D7
:105AE00007E00900F550EE6EBD07F8E2BE07F9D7F2
:105AF000C1C2F6FFC2C2F7FFC3C2F8FF0201BF076F
:085B0000000EC05BBFD71200CC
:085B0800FB0EE3CFF6FFFC0EDB
:105B1000E3CFF7FFFD0EE3CFF8FFFE0EE3CFE9FF83
:105B2000FF0EE3CFEAFFE9CFF3FFEACFF4FF09006E
:105B3000F5CFEFFFEE66FBD71200FE0EE3CFE9FFD5
:105B4000FF0EE3CFEAFFF36AF46AEE5203E0F34A92
:105B5000F42AFBD71200FF0EE3CFF8FFE552FF0E49
:105B6000E3CFF7FFE552FF0EE3CFF6FFE552E66A1B
:105B7000E66AE66A0900F55209E0FD0EE32A05E14E
:105B8000FE0EE32A02E1FF0EE32AF4D7FD0EE3CF77
:105B90001CF0FE0EE3CF1DF0FF0EE3CF1EF012004F
:105BA000D9CFE6FFDACFE6FFE1CFD9FFE2CFDAFFC8
:105BB000E652E652E652E652D950FB0F2B6EFF0E2C
:105BC000DA202C6E2BC0DEFFDD6EDECFE6FFDDCFF0
:105BD000E6FFFB0EDBCFE6FFFC0EDBCFE6FFFD0EA4
:105BE000DBCFE6FFC8C2E6FFC9C2E6FF25EC10F036
:105BF000F56E070EE15C02E2E16AE552E16EF550F6
:105C0000020EF3CFDBFF030EF4CFDBFF020EDBCF80
:105C10002BF0030EDBCF2CF02BC0F3FF2CC0F4FFD6
:105C2000D9CFE1FFDACFE2FFE552E5CFDAFFE7CFE8
:045C3000D9FF120086
:0C5C34002043414E542053484946542060
:105C400000756C7472613A20256420256C692025EA
:105C5000640D0A0061633A20256C69006C77733A21
:105C60002025642C20727773202564203A3A202066
:105C7000006C77703A20256C692C20727770202593
:105C80006C69203A3A202000414442473A2025647A
:105C9000203A3A0025640D0A004946492032303046
:105CA0003620557365722050726F636573736F721F
:105CB00020496E697469616C697A6564202E2E2EA4
:025CC0000D00D5
:0E5CC200D9CFE6FFDACFE6FFE1CFD9FFE2CF80
:105CD000DAFFFB0EDBCF2BF0FC0EDBCF2CF000014C
:105CE000800E2C141AE1FB0EDBCFE9FFFC0EDBCF9C
:105CF000EAFFEECFF3FFEDCFF4FFEE2A000EEF2226
:105D0000F3CFE9FFF4CFEAFFFD0EDBCFEFFFEF505B
:105D10002C6AF36E2CC0F4FF10D0FB0EDB50FE0893
:105D200006E1FD0EDBCFE6FF73EC30F005D0FD0E93
:105D3000DBCFE6FF03EC04F0E552E552E5CFDAFFF6
:065D4000E7CFD9FF1200BD
:0A5D46001B502002F3CF17F0F4CF3A
:105D500018F02102F3501826000EF420196E1B5083
:105D60002202F3501926000EF4201A6E1B50230253
:105D7000F3501A261C502002F3501826F450192212
:105D8000000E1A221C502102F3501926F4501A2238
:105D90001C502202F3501A261D502002F3501926DF
:105DA000F4501A221D502102F3501A261E502002D0
:065DB000F3501A26120058
:0A5DB600D9CFE6FFDACFE6FFE1CF18
:105DC000D9FFE2CFDAFFC26AC16AC06AFC0EDB40CB
:105DD0007F0B3C0BC26EFB0EDB50C16EFC0EDB3842
:105DE000F00B300BC112FD0EDB50800BC06EFD0EB0
:105DF000DB380F0B070BC012FD0EDB50040DF35008
:105E0000380BC012FC0EDBAE03D09E9C9D8CF28C36
:0E5E1000C280E552E5CFDAFFE7CFD9FF1200DE
:025E1E00D9CFDA
:105E2000E6FFDACFE6FFE1CFD9FFE2CFDAFF3F0EA0
:105E3000C716C66AFD0EDB50C612FB0EDB50C7123A
:105E4000FC0EDB50030A09E0010A04E0020A06E145
:105E5000C78C04D0C78CC68801D0C688FD0EDB5025
:105E6000050A03E0010A04E1978E9486C79E01D0DB
:105E70009496949A9488C68AE552E5CFDAFFE7CFE4
:045E8000D9FF120034
:0C5E8400D9CFE6FFDACFE6FFE1CFD9FF6F
:105E9000E2CFDAFF6C6A6B6AFD0EDBB06C88DBA2C6
:105EA00002D06C8C6B8CDBB46C8EDBA602D06B8862
:105EB00001D06B8ADBA802D06C8401D06C94DBAC7F
:105EC00002D0A38A01D0A39ADBAE02D0A38801D06E
:105ED000A398FC0EDB506F6E6C8A6B8EE552E5CF9B
:085EE000DAFFE7CFD9FF120041
:085EE800D9CFE6FFDACFE6FF97
:105EF000E1CFD9FFE2CFDAFFAC6AAB6AFD0EDBB0CF
:105F0000AC88DBA202D0AC8CAB8CDBB4AC8EDBA655
:105F100002D0AB8801D0AB8ADBA802D0AC8401D020
:105F2000AC94DBAC02D09D8A01D09D9ADBAE02D04E
:105F30009D8801D09D98FC0EDB50AF6EAC8AAB8E75
:0C5F4000E552E5CFDAFFE7CFD9FF1200F1
:045F4C000201816B62
:105F5000826B836B846B1200850ECF6EED0ECE6E5E
:105F60001200850ECF6EED0ECE6E0201812B000E5B
:105F70008223832384231200CD909E90300ECD6E19
:105F8000850ECF6EED0ECE6ECD809F909D80F28CF3
:105F90001200F29C81C285F282C286F283C287F22D
:085FA00084C288F2F28C1200A9
:085FA8001A6A196A186A176AE7
:105FB000200EE76ED8901B361C361D361E3617365F
:105FC000183619361A362050175C215018582250AE
:105FD000195823501A5809E32050175E2150185AB7
:105FE0002250195A23501A5A1B2AE72EE4D71200BE
:105FF000D9CFE6FFDACFE6FFE1CFD9FFE2CFDAFF74
:10600000E652E652C350DF6E010EC4CFDBFFDECF97
:106010002BF0DDCF2CF02BC0F3FF2CC0F4FFE552AA
:0E602000E552E552E5CFDAFFE7CFD9FF1200D7
:02602E001A6AEC
:10603000196A100EE76ED8901D361E3619361A36BC
:106040002250195C23501A5805E32250195E235040
:0A6050001A5A1D2AE72EF0D712009D
:06605A00BBEC1BF05CEC46
:1060600017F002014091020140A107D00BEC18F09B
:10607000020121AD02D0B2EC04F083EC0EF0F3D7B4
:0260800012000C
:0E608200F36AF46AFF0EE124E96EFF0EE220DD
:10609000EA6EED6607D02F0EEF6404D03A0EEF6083
:0660A00001D0F32A1200FA
:0A60A6001EEE00F02EEE00F0F86A86
:1060B000269CA68EA69C36EC27F035EC2DF02DEC18
:0660C00030F0F9D71200D8
:0A60C600FF0EE350396E480E01D0C2
:1060D0004C0EE76EE72EFED7E76AE72EFED7392E85
:0660E000F7D700001200DA
:0A60E600FF0EE350ACBA04D0AF6A1D
:1060F000AB8EAC8A949CACA2FED7AD6EF36EF46A04
:0261000012008B
:0E610200FF0EE350E84E1200000000D000D067
:0861100000D0E82EFAD71200BE
:086118003031323334353637E3
:09612000383961626364656600B0
:016129000075
:06612A00C2909D9C1200D2
:04613000C282120015
:0C6134000000000000000000000000005F
:10614000000000000000000000000000000000004F
:0961500000000000000000000046
:02615900FEFF47
:05615B0000000000003F
:0B616000000000000000000000000034
:04616B000000000030
:01616F00002F
:0C6170000000000000000000000000FF24
:020000040030CA
:0E000000FF36F6FEFFFF8BFFFFBFFF9FFFBF27
:00000001FF
